{
  "_format": "hh-sol-artifact-1",
  "contractName": "CarbonPOL",
  "sourceName": "contracts/pol/CarbonPOL.sol",
  "abi": [
    {
      "inputs": [
        {
          "internalType": "Token",
          "name": "initBnt",
          "type": "address"
        }
      ],
      "stateMutability": "nonpayable",
      "type": "constructor"
    },
    {
      "inputs": [],
      "name": "AccessDenied",
      "type": "error"
    },
    {
      "inputs": [],
      "name": "AlreadyInitialized",
      "type": "error"
    },
    {
      "inputs": [],
      "name": "InsufficientAmountForTrading",
      "type": "error"
    },
    {
      "inputs": [],
      "name": "InsufficientNativeTokenSent",
      "type": "error"
    },
    {
      "inputs": [],
      "name": "InvalidAddress",
      "type": "error"
    },
    {
      "inputs": [],
      "name": "InvalidPrice",
      "type": "error"
    },
    {
      "inputs": [],
      "name": "InvalidToken",
      "type": "error"
    },
    {
      "inputs": [],
      "name": "InvalidTrade",
      "type": "error"
    },
    {
      "inputs": [],
      "name": "Overflow",
      "type": "error"
    },
    {
      "inputs": [],
      "name": "TradingDisabled",
      "type": "error"
    },
    {
      "inputs": [],
      "name": "ZeroValue",
      "type": "error"
    },
    {
      "anonymous": false,
      "inputs": [
        {
          "indexed": false,
          "internalType": "uint128",
          "name": "prevEthSaleAmount",
          "type": "uint128"
        },
        {
          "indexed": false,
          "internalType": "uint128",
          "name": "newEthSaleAmount",
          "type": "uint128"
        }
      ],
      "name": "EthSaleAmountUpdated",
      "type": "event"
    },
    {
      "anonymous": false,
      "inputs": [
        {
          "indexed": false,
          "internalType": "uint8",
          "name": "version",
          "type": "uint8"
        }
      ],
      "name": "Initialized",
      "type": "event"
    },
    {
      "anonymous": false,
      "inputs": [
        {
          "indexed": false,
          "internalType": "uint32",
          "name": "prevMarketPriceMultiply",
          "type": "uint32"
        },
        {
          "indexed": false,
          "internalType": "uint32",
          "name": "newMarketPriceMultiply",
          "type": "uint32"
        }
      ],
      "name": "MarketPriceMultiplyUpdated",
      "type": "event"
    },
    {
      "anonymous": false,
      "inputs": [
        {
          "indexed": false,
          "internalType": "uint128",
          "name": "prevMinEthSaleAmount",
          "type": "uint128"
        },
        {
          "indexed": false,
          "internalType": "uint128",
          "name": "newMinEthSaleAmount",
          "type": "uint128"
        }
      ],
      "name": "MinEthSaleAmountUpdated",
      "type": "event"
    },
    {
      "anonymous": false,
      "inputs": [
        {
          "indexed": false,
          "internalType": "uint32",
          "name": "prevPriceDecayHalfLife",
          "type": "uint32"
        },
        {
          "indexed": false,
          "internalType": "uint32",
          "name": "newPriceDecayHalfLife",
          "type": "uint32"
        }
      ],
      "name": "PriceDecayHalfLifeUpdated",
      "type": "event"
    },
    {
      "anonymous": false,
      "inputs": [
        {
          "indexed": true,
          "internalType": "Token",
          "name": "token",
          "type": "address"
        },
        {
          "components": [
            {
              "internalType": "uint128",
              "name": "sourceAmount",
              "type": "uint128"
            },
            {
              "internalType": "uint128",
              "name": "targetAmount",
              "type": "uint128"
            }
          ],
          "indexed": false,
          "internalType": "struct ICarbonPOL.Price",
          "name": "price",
          "type": "tuple"
        }
      ],
      "name": "PriceUpdated",
      "type": "event"
    },
    {
      "anonymous": false,
      "inputs": [
        {
          "indexed": true,
          "internalType": "bytes32",
          "name": "role",
          "type": "bytes32"
        },
        {
          "indexed": true,
          "internalType": "bytes32",
          "name": "previousAdminRole",
          "type": "bytes32"
        },
        {
          "indexed": true,
          "internalType": "bytes32",
          "name": "newAdminRole",
          "type": "bytes32"
        }
      ],
      "name": "RoleAdminChanged",
      "type": "event"
    },
    {
      "anonymous": false,
      "inputs": [
        {
          "indexed": true,
          "internalType": "bytes32",
          "name": "role",
          "type": "bytes32"
        },
        {
          "indexed": true,
          "internalType": "address",
          "name": "account",
          "type": "address"
        },
        {
          "indexed": true,
          "internalType": "address",
          "name": "sender",
          "type": "address"
        }
      ],
      "name": "RoleGranted",
      "type": "event"
    },
    {
      "anonymous": false,
      "inputs": [
        {
          "indexed": true,
          "internalType": "bytes32",
          "name": "role",
          "type": "bytes32"
        },
        {
          "indexed": true,
          "internalType": "address",
          "name": "account",
          "type": "address"
        },
        {
          "indexed": true,
          "internalType": "address",
          "name": "sender",
          "type": "address"
        }
      ],
      "name": "RoleRevoked",
      "type": "event"
    },
    {
      "anonymous": false,
      "inputs": [
        {
          "indexed": true,
          "internalType": "address",
          "name": "caller",
          "type": "address"
        },
        {
          "indexed": true,
          "internalType": "Token",
          "name": "token",
          "type": "address"
        },
        {
          "indexed": false,
          "internalType": "uint128",
          "name": "sourceAmount",
          "type": "uint128"
        },
        {
          "indexed": false,
          "internalType": "uint128",
          "name": "targetAmount",
          "type": "uint128"
        }
      ],
      "name": "TokenTraded",
      "type": "event"
    },
    {
      "anonymous": false,
      "inputs": [
        {
          "indexed": true,
          "internalType": "Token",
          "name": "token",
          "type": "address"
        },
        {
          "components": [
            {
              "internalType": "uint128",
              "name": "sourceAmount",
              "type": "uint128"
            },
            {
              "internalType": "uint128",
              "name": "targetAmount",
              "type": "uint128"
            }
          ],
          "indexed": false,
          "internalType": "struct ICarbonPOL.Price",
          "name": "price",
          "type": "tuple"
        }
      ],
      "name": "TradingEnabled",
      "type": "event"
    },
    {
      "inputs": [],
      "name": "DEFAULT_ADMIN_ROLE",
      "outputs": [
        {
          "internalType": "bytes32",
          "name": "",
          "type": "bytes32"
        }
      ],
      "stateMutability": "view",
      "type": "function"
    },
    {
      "inputs": [
        {
          "internalType": "Token",
          "name": "token",
          "type": "address"
        }
      ],
      "name": "amountAvailableForTrading",
      "outputs": [
        {
          "internalType": "uint128",
          "name": "",
          "type": "uint128"
        }
      ],
      "stateMutability": "view",
      "type": "function"
    },
    {
      "inputs": [
        {
          "internalType": "Token",
          "name": "token",
          "type": "address"
        },
        {
          "components": [
            {
              "internalType": "uint128",
              "name": "sourceAmount",
              "type": "uint128"
            },
            {
              "internalType": "uint128",
              "name": "targetAmount",
              "type": "uint128"
            }
          ],
          "internalType": "struct ICarbonPOL.Price",
          "name": "price",
          "type": "tuple"
        }
      ],
      "name": "enableTrading",
      "outputs": [],
      "stateMutability": "nonpayable",
      "type": "function"
    },
    {
      "inputs": [
        {
          "components": [
            {
              "internalType": "uint128",
              "name": "sourceAmount",
              "type": "uint128"
            },
            {
              "internalType": "uint128",
              "name": "targetAmount",
              "type": "uint128"
            }
          ],
          "internalType": "struct ICarbonPOL.Price",
          "name": "price",
          "type": "tuple"
        }
      ],
      "name": "enableTradingETH",
      "outputs": [],
      "stateMutability": "nonpayable",
      "type": "function"
    },
    {
      "inputs": [],
      "name": "ethSaleAmount",
      "outputs": [
        {
          "components": [
            {
              "internalType": "uint128",
              "name": "initial",
              "type": "uint128"
            },
            {
              "internalType": "uint128",
              "name": "current",
              "type": "uint128"
            }
          ],
          "internalType": "struct ICarbonPOL.EthSaleAmount",
          "name": "",
          "type": "tuple"
        }
      ],
      "stateMutability": "view",
      "type": "function"
    },
    {
      "inputs": [
        {
          "internalType": "Token",
          "name": "token",
          "type": "address"
        },
        {
          "internalType": "uint128",
          "name": "targetAmount",
          "type": "uint128"
        }
      ],
      "name": "expectedTradeInput",
      "outputs": [
        {
          "internalType": "uint128",
          "name": "",
          "type": "uint128"
        }
      ],
      "stateMutability": "view",
      "type": "function"
    },
    {
      "inputs": [
        {
          "internalType": "Token",
          "name": "token",
          "type": "address"
        },
        {
          "internalType": "uint128",
          "name": "sourceAmount",
          "type": "uint128"
        }
      ],
      "name": "expectedTradeReturn",
      "outputs": [
        {
          "internalType": "uint128",
          "name": "",
          "type": "uint128"
        }
      ],
      "stateMutability": "view",
      "type": "function"
    },
    {
      "inputs": [
        {
          "internalType": "bytes32",
          "name": "role",
          "type": "bytes32"
        }
      ],
      "name": "getRoleAdmin",
      "outputs": [
        {
          "internalType": "bytes32",
          "name": "",
          "type": "bytes32"
        }
      ],
      "stateMutability": "view",
      "type": "function"
    },
    {
      "inputs": [
        {
          "internalType": "bytes32",
          "name": "role",
          "type": "bytes32"
        },
        {
          "internalType": "uint256",
          "name": "index",
          "type": "uint256"
        }
      ],
      "name": "getRoleMember",
      "outputs": [
        {
          "internalType": "address",
          "name": "",
          "type": "address"
        }
      ],
      "stateMutability": "view",
      "type": "function"
    },
    {
      "inputs": [
        {
          "internalType": "bytes32",
          "name": "role",
          "type": "bytes32"
        }
      ],
      "name": "getRoleMemberCount",
      "outputs": [
        {
          "internalType": "uint256",
          "name": "",
          "type": "uint256"
        }
      ],
      "stateMutability": "view",
      "type": "function"
    },
    {
      "inputs": [
        {
          "internalType": "bytes32",
          "name": "role",
          "type": "bytes32"
        },
        {
          "internalType": "address",
          "name": "account",
          "type": "address"
        }
      ],
      "name": "grantRole",
      "outputs": [],
      "stateMutability": "nonpayable",
      "type": "function"
    },
    {
      "inputs": [
        {
          "internalType": "bytes32",
          "name": "role",
          "type": "bytes32"
        },
        {
          "internalType": "address",
          "name": "account",
          "type": "address"
        }
      ],
      "name": "hasRole",
      "outputs": [
        {
          "internalType": "bool",
          "name": "",
          "type": "bool"
        }
      ],
      "stateMutability": "view",
      "type": "function"
    },
    {
      "inputs": [],
      "name": "initialize",
      "outputs": [],
      "stateMutability": "nonpayable",
      "type": "function"
    },
    {
      "inputs": [],
      "name": "marketPriceMultiply",
      "outputs": [
        {
          "internalType": "uint32",
          "name": "",
          "type": "uint32"
        }
      ],
      "stateMutability": "view",
      "type": "function"
    },
    {
      "inputs": [],
      "name": "minEthSaleAmount",
      "outputs": [
        {
          "internalType": "uint128",
          "name": "",
          "type": "uint128"
        }
      ],
      "stateMutability": "view",
      "type": "function"
    },
    {
      "inputs": [
        {
          "internalType": "bytes",
          "name": "data",
          "type": "bytes"
        }
      ],
      "name": "postUpgrade",
      "outputs": [],
      "stateMutability": "nonpayable",
      "type": "function"
    },
    {
      "inputs": [],
      "name": "priceDecayHalfLife",
      "outputs": [
        {
          "internalType": "uint32",
          "name": "",
          "type": "uint32"
        }
      ],
      "stateMutability": "view",
      "type": "function"
    },
    {
      "inputs": [
        {
          "internalType": "bytes32",
          "name": "role",
          "type": "bytes32"
        },
        {
          "internalType": "address",
          "name": "account",
          "type": "address"
        }
      ],
      "name": "renounceRole",
      "outputs": [],
      "stateMutability": "nonpayable",
      "type": "function"
    },
    {
      "inputs": [
        {
          "internalType": "bytes32",
          "name": "role",
          "type": "bytes32"
        },
        {
          "internalType": "address",
          "name": "account",
          "type": "address"
        }
      ],
      "name": "revokeRole",
      "outputs": [],
      "stateMutability": "nonpayable",
      "type": "function"
    },
    {
      "inputs": [],
      "name": "roleAdmin",
      "outputs": [
        {
          "internalType": "bytes32",
          "name": "",
          "type": "bytes32"
        }
      ],
      "stateMutability": "pure",
      "type": "function"
    },
    {
      "inputs": [
        {
          "internalType": "uint128",
          "name": "newEthSaleAmount",
          "type": "uint128"
        }
      ],
      "name": "setEthSaleAmount",
      "outputs": [],
      "stateMutability": "nonpayable",
      "type": "function"
    },
    {
      "inputs": [
        {
          "internalType": "uint32",
          "name": "newMarketPriceMultiply",
          "type": "uint32"
        }
      ],
      "name": "setMarketPriceMultiply",
      "outputs": [],
      "stateMutability": "nonpayable",
      "type": "function"
    },
    {
      "inputs": [
        {
          "internalType": "uint128",
          "name": "newMinEthSaleAmount",
          "type": "uint128"
        }
      ],
      "name": "setMinEthSaleAmount",
      "outputs": [],
      "stateMutability": "nonpayable",
      "type": "function"
    },
    {
      "inputs": [
        {
          "internalType": "uint32",
          "name": "newPriceDecayHalfLife",
          "type": "uint32"
        }
      ],
      "name": "setPriceDecayHalfLife",
      "outputs": [],
      "stateMutability": "nonpayable",
      "type": "function"
    },
    {
      "inputs": [
        {
          "internalType": "bytes4",
          "name": "interfaceId",
          "type": "bytes4"
        }
      ],
      "name": "supportsInterface",
      "outputs": [
        {
          "internalType": "bool",
          "name": "",
          "type": "bool"
        }
      ],
      "stateMutability": "view",
      "type": "function"
    },
    {
      "inputs": [
        {
          "internalType": "Token",
          "name": "token",
          "type": "address"
        }
      ],
      "name": "tokenPrice",
      "outputs": [
        {
          "components": [
            {
              "internalType": "uint128",
              "name": "sourceAmount",
              "type": "uint128"
            },
            {
              "internalType": "uint128",
              "name": "targetAmount",
              "type": "uint128"
            }
          ],
          "internalType": "struct ICarbonPOL.Price",
          "name": "",
          "type": "tuple"
        }
      ],
      "stateMutability": "view",
      "type": "function"
    },
    {
      "inputs": [
        {
          "internalType": "Token",
          "name": "token",
          "type": "address"
        },
        {
          "internalType": "uint128",
          "name": "targetAmount",
          "type": "uint128"
        }
      ],
      "name": "trade",
      "outputs": [],
      "stateMutability": "payable",
      "type": "function"
    },
    {
      "inputs": [
        {
          "internalType": "Token",
          "name": "token",
          "type": "address"
        }
      ],
      "name": "tradingEnabled",
      "outputs": [
        {
          "internalType": "bool",
          "name": "",
          "type": "bool"
        }
      ],
      "stateMutability": "view",
      "type": "function"
    },
    {
      "inputs": [],
      "name": "version",
      "outputs": [
        {
          "internalType": "uint16",
          "name": "",
          "type": "uint16"
        }
      ],
      "stateMutability": "pure",
      "type": "function"
    },
    {
      "stateMutability": "payable",
      "type": "receive"
    }
  ],
  "bytecode": "0x60a06040523480156200001157600080fd5b506040516200400b3803806200400b833981016040819052620000349162000965565b6200003f816200005d565b6001600160a01b0381166080526200005662000088565b50620009c8565b6001600160a01b038116620000855760405163e6c4247b60e01b815260040160405180910390fd5b50565b600054610100900460ff1615808015620000a95750600054600160ff909116105b80620000c55750303b158015620000c5575060005460ff166001145b6200012e5760405162461bcd60e51b815260206004820152602e60248201527f496e697469616c697a61626c653a20636f6e747261637420697320616c72656160448201526d191e481a5b9a5d1a585b1a5e995960921b60648201526084015b60405180910390fd5b6000805460ff19166001179055801562000152576000805461ff0019166101001790555b6200015c620001a5565b801562000085576000805461ff0019169055604051600181527f7f26b83ff96e1f2b6a682f133852f6798a09c465da95921460cefb38474024989060200160405180910390a150565b600054610100900460ff16620002015760405162461bcd60e51b815260206004820152602b602482015260008051602062003feb83398151915260448201526a6e697469616c697a696e6760a81b606482015260840162000125565b6200020b62000221565b6200021562000291565b6200021f620002f7565b565b600054610100900460ff166200027d5760405162461bcd60e51b815260206004820152602b602482015260008051602062003feb83398151915260448201526a6e697469616c697a696e6760a81b606482015260840162000125565b6200028762000394565b6200021f620003f0565b600054610100900460ff16620002ed5760405162461bcd60e51b815260206004820152602b602482015260008051602062003feb83398151915260448201526a6e697469616c697a696e6760a81b606482015260840162000125565b6200021f620004a6565b600054610100900460ff16620003535760405162461bcd60e51b815260206004820152602b602482015260008051602062003feb83398151915260448201526a6e697469616c697a696e6760a81b606482015260840162000125565b6200035f600262000509565b6200036d620d2f006200057e565b6200038168056bc75e2d6310000062000601565b6200021f678ac7230489e80000620006d6565b600054610100900460ff166200021f5760405162461bcd60e51b815260206004820152602b602482015260008051602062003feb83398151915260448201526a6e697469616c697a696e6760a81b606482015260840162000125565b600054610100900460ff166200044c5760405162461bcd60e51b815260206004820152602b602482015260008051602062003feb83398151915260448201526a6e697469616c697a696e6760a81b606482015260840162000125565b6200045a6001600262000997565b60c9805461ffff191661ffff929092169190911790556200048b60008051602062003fcb833981519152806200074d565b6200021f60008051602062003fcb8339815191523362000798565b600054610100900460ff16620005025760405162461bcd60e51b815260206004820152602b602482015260008051602062003feb83398151915260448201526a6e697469616c697a696e6760a81b606482015260840162000125565b600160fb55565b61012d5463ffffffff908116908216810362000523575050565b61012d805463ffffffff191663ffffffff84811691821790925560408051928416835260208301919091527f04ee60e68c7a4f836ca7ca7f5d9772049ac5846fc054b0d809e0e3de754952b091015b60405180910390a15050565b61012d5463ffffffff64010000000090910481169082168103620005a0575050565b61012d805463ffffffff60201b191664010000000063ffffffff8581169182029290921790925560408051918416825260208201929092527f91a3ff80be5536f6b4a03994984844ded4c1470ac2e7c1a1f9445464358788c3910162000572565b610130546001600160801b0390811690821681036200061e575050565b61013080546001600160801b0319166001600160801b0384811691821792839055600160801b90920490911611156200069557610130546200067690620006709047906001600160801b0316620007a8565b620007c4565b61013080546001600160801b03928316600160801b0292169190911790555b604080516001600160801b038084168252841660208201527f85e15b0826727feb528c06e9d1eec6c462de224bbb5b7c737824ae09ea83a7bc910162000572565b610131546001600160801b039081169082168103620006f3575050565b61013180546001600160801b0319166001600160801b0384811691821790925560408051928416835260208301919091527fab3e74195d9db5b0262eea6c76eda46ba8bb5aed6f36164adbce526d219596d1910162000572565b600082815260656020526040808220600101805490849055905190918391839186917fbd79b86ffe0ab8e8776151514217cd7cacd52c909f66475c3af44e129f0b00ff9190a4505050565b620007a4828262000833565b5050565b6000818310620007b95781620007bb565b825b90505b92915050565b60006001600160801b038211156200082f5760405162461bcd60e51b815260206004820152602760248201527f53616665436173743a2076616c756520646f65736e27742066697420696e20316044820152663238206269747360c81b606482015260840162000125565b5090565b6200083f82826200085e565b600082815260976020526040902062000859908262000902565b505050565b60008281526065602090815260408083206001600160a01b038516845290915290205460ff16620007a45760008281526065602090815260408083206001600160a01b03851684529091529020805460ff19166001179055620008be3390565b6001600160a01b0316816001600160a01b0316837f2f8788117e7eff1d82e926ec794901d17c78024a50270940304540a733656f0d60405160405180910390a45050565b6000620007bb836001600160a01b03841660008181526001830160205260408120546200095c57508154600181810184556000848152602080822090930184905584548482528286019093526040902091909155620007be565b506000620007be565b6000602082840312156200097857600080fd5b81516001600160a01b03811681146200099057600080fd5b9392505050565b61ffff828116828216039080821115620009c157634e487b7160e01b600052601160045260246000fd5b5092915050565b6080516135e7620009e4600039600061135f01526135e76000f3fe6080604052600436106101c65760003560e01c80639010d07c116100f7578063b88da7b111610095578063ea9986a911610064578063ea9986a914610586578063eec245e2146105a6578063f5044552146105c6578063fc7499b9146105e657600080fd5b8063b88da7b114610507578063bedf952514610526578063ca15c87314610546578063d547741f1461056657600080fd5b8063a217fddf116100d1578063a217fddf14610492578063a7ae00d2146104a7578063b184b520146104c7578063b319de9e146104e757600080fd5b80639010d07c146103e157806391d148541461041957806393867fb51461045f57600080fd5b806354fd4d5011610164578063824316881161013e578063824316881461033c57806384ba3f69146103745780638cd2403d146103a15780638f975d4c146103c157600080fd5b806354fd4d50146102e757806363ee9e4e146103035780638129fc1c1461032757600080fd5b80632f2ff15d116101a05780632f2ff15d1461026757806336568abe146102875780634747919d146102a75780634cb0821e146102ba57600080fd5b806301ffc9a7146101d25780630d108f2c14610207578063248a9ca31461022957600080fd5b366101cd57005b600080fd5b3480156101de57600080fd5b506101f26101ed366004612f5e565b610632565b60405190151581526020015b60405180910390f35b34801561021357600080fd5b50610227610222366004612fa0565b61068e565b005b34801561023557600080fd5b50610259610244366004612fc6565b60009081526065602052604090206001015490565b6040519081526020016101fe565b34801561027357600080fd5b50610227610282366004612ff4565b6106d5565b34801561029357600080fd5b506102276102a2366004612ff4565b6106ff565b6102276102b536600461303b565b61078c565b3480156102c657600080fd5b5061012d5463ffffffff165b60405163ffffffff90911681526020016101fe565b3480156102f357600080fd5b50604051600281526020016101fe565b34801561030f57600080fd5b5061012d54640100000000900463ffffffff166102d2565b34801561033357600080fd5b50610227610851565b34801561034857600080fd5b5061035c61035736600461303b565b610971565b6040516001600160801b0390911681526020016101fe565b34801561038057600080fd5b5061039461038f366004613070565b610a2c565b6040516101fe919061308d565b3480156103ad57600080fd5b506102276103bc3660046130b1565b610b51565b3480156103cd57600080fd5b506102276103dc3660046131a5565b610bbc565b3480156103ed57600080fd5b506104016103fc3660046131c1565b610d08565b6040516001600160a01b0390911681526020016101fe565b34801561042557600080fd5b506101f2610434366004612ff4565b60009182526065602090815260408084206001600160a01b0393909316845291905290205460ff1690565b34801561046b57600080fd5b507f2172861495e7b85edac73e3cd5fbb42dd675baadf627720e687bcfdaca025096610259565b34801561049e57600080fd5b50610259600081565b3480156104b357600080fd5b5061035c6104c236600461303b565b610d27565b3480156104d357600080fd5b506102276104e23660046131e3565b610dce565b3480156104f357600080fd5b506102276105023660046131e3565b610e14565b34801561051357600080fd5b50610131546001600160801b031661035c565b34801561053257600080fd5b506101f2610541366004613070565b610e5a565b34801561055257600080fd5b50610259610561366004612fc6565b610e81565b34801561057257600080fd5b50610227610581366004612ff4565b610e98565b34801561059257600080fd5b506102276105a13660046131fe565b610ebd565b3480156105b257600080fd5b5061035c6105c1366004613070565b610fdb565b3480156105d257600080fd5b506102276105e1366004612fa0565b610fe6565b3480156105f257600080fd5b5060408051808201825260008082526020918201528151808301909252610130546001600160801b038082168452600160801b9091041690820152610394565b60007fffffffff0000000000000000000000000000000000000000000000000000000082167f5a05180f000000000000000000000000000000000000000000000000000000001480610688575061068882611029565b92915050565b6106b87f2172861495e7b85edac73e3cd5fbb42dd675baadf627720e687bcfdaca025096336110c0565b8063ffffffff166106c88161111c565b6106d182611156565b5050565b6000828152606560205260409020600101546106f0816111f7565b6106fa8383611201565b505050565b6001600160a01b03811633146107825760405162461bcd60e51b815260206004820152602f60248201527f416363657373436f6e74726f6c3a2063616e206f6e6c792072656e6f756e636560448201527f20726f6c657320666f722073656c66000000000000000000000000000000000060648201526084015b60405180910390fd5b6106d18282611223565b610794611245565b8161079e8161129e565b816001600160801b03166107b18161111c565b60006001600160a01b03851673eeeeeeeeeeeeeeeeeeeeeeeeeeeeeeeeeeeeeeee036107e7576107e0846112f4565b90506107f4565b6107f18585611546565b90505b604080516001600160801b038084168252861660208201526001600160a01b0387169133917f16ddee9b3f1b2e6f797172fe2cd10a214e749294074e075e451f95aecd0b958c910160405180910390a35050506106d1600160fb55565b600054610100900460ff16158080156108715750600054600160ff909116105b8061088b5750303b15801561088b575060005460ff166001145b6108fd5760405162461bcd60e51b815260206004820152602e60248201527f496e697469616c697a61626c653a20636f6e747261637420697320616c72656160448201527f647920696e697469616c697a65640000000000000000000000000000000000006064820152608401610779565b6000805460ff191660011790558015610920576000805461ff0019166101001790555b61092861162d565b801561096e576000805461ff0019169055604051600181527f7f26b83ff96e1f2b6a682f133852f6798a09c465da95921460cefb38474024989060200160405180910390a15b50565b60008261097d8161129e565b600061098885610a2c565b9050610993816116b2565b60006109cb6109c683602001516001600160801b0316876001600160801b031685600001516001600160801b031661170a565b6117fe565b90506109d686611881565b6001600160801b0316816001600160801b03161115610a21576040517f8e26ecdf00000000000000000000000000000000000000000000000000000000815260040160405180910390fd5b9250505b5092915050565b60408051808201909152600080825260208201526001600160a01b038216600090815261012e602052604081205463ffffffff1690819003610a9a576040517fbcb8b8fb00000000000000000000000000000000000000000000000000000000815260040160405180910390fd5b6000610aa68242613241565b6001600160a01b038516600090815261012f60209081526040918290208251808401909352546001600160801b03808216808552600160801b909204169183019190915261012d54929350909163ffffffff16908290610b0790839061325e565b6001600160801b03908116909152825161012d54610b3e93506109c69291909116908590640100000000900463ffffffff166118d8565b6001600160801b03168152949350505050565b60c954600090610b669061ffff166001613289565b905061ffff8116600214610ba6576040517f0dc149f000000000000000000000000000000000000000000000000000000000815260040160405180910390fd5b60c9805461ffff191661ffff8316179055505050565b610be67f2172861495e7b85edac73e3cd5fbb42dd675baadf627720e687bcfdaca025096336110c0565b80610bf0816116b2565b73eeeeeeeeeeeeeeeeeeeeeeeeeeeeeeeeeeeeeeee6000527f986499b4ad39bbf2021624cfb3f810f08a98c4a5dc2082f7efd6d3dfbb53ca1a805463ffffffff19164263ffffffff1617905561012f60209081528251908301516001600160801b03918216600160801b91831691909102177f80dff77e1e936c662564150b996baf5db9b7ec2d73ee90f020226755abd1dcc35561013054610c98916109c691479116611960565b61013080546001600160801b03928316600160801b02921691909117905560405173eeeeeeeeeeeeeeeeeeeeeeeeeeeeeeeeeeeeeeee907fae3f48c001771f8e9868e24d47b9e4295b06b1d78072acf96f167074aa3fab6490610cfc90859061308d565b60405180910390a25050565b6000828152609760205260408120610d209083611976565b9392505050565b600082610d338161129e565b610d3c84611881565b6001600160801b0316836001600160801b03161115610d87576040517f8e26ecdf00000000000000000000000000000000000000000000000000000000815260040160405180910390fd5b6000610d9285610a2c565b9050610d9d816116b2565b610a216109c682600001516001600160801b0316866001600160801b031684602001516001600160801b031661170a565b610df87f2172861495e7b85edac73e3cd5fbb42dd675baadf627720e687bcfdaca025096336110c0565b806001600160801b0316610e0b8161111c565b6106d182611982565b610e3e7f2172861495e7b85edac73e3cd5fbb42dd675baadf627720e687bcfdaca025096336110c0565b806001600160801b0316610e518161111c565b6106d182611a0f565b6001600160a01b038116600090815261012e602052604081205463ffffffff161515610688565b600081815260976020526040812061068890611af0565b600082815260656020526040902060010154610eb3816111f7565b6106fa8383611223565b610ee77f2172861495e7b85edac73e3cd5fbb42dd675baadf627720e687bcfdaca025096336110c0565b80610ef1816116b2565b6001600160a01b03831673eeeeeeeeeeeeeeeeeeeeeeeeeeeeeeeeeeeeeeee03610f47576040517fc1ab6dc100000000000000000000000000000000000000000000000000000000815260040160405180910390fd5b6001600160a01b038316600081815261012e60209081526040808320805463ffffffff421663ffffffff1990911617905561012f8252918290208551918601516001600160801b03908116600160801b029216919091179055517fae3f48c001771f8e9868e24d47b9e4295b06b1d78072acf96f167074aa3fab6490610fce90859061308d565b60405180910390a2505050565b600061068882611881565b6110107f2172861495e7b85edac73e3cd5fbb42dd675baadf627720e687bcfdaca025096336110c0565b8063ffffffff166110208161111c565b6106d182611afa565b60007fffffffff0000000000000000000000000000000000000000000000000000000082167f7965db0b00000000000000000000000000000000000000000000000000000000148061068857507f01ffc9a7000000000000000000000000000000000000000000000000000000007fffffffff00000000000000000000000000000000000000000000000000000000831614610688565b60008281526065602090815260408083206001600160a01b038516845290915290205460ff166106d1576040517f4ca8886700000000000000000000000000000000000000000000000000000000815260040160405180910390fd5b8060000361096e576040517f7c946ed700000000000000000000000000000000000000000000000000000000815260040160405180910390fd5b61012d5463ffffffff64010000000090910481169082168103611177575050565b61012d80547fffffffffffffffffffffffffffffffffffffffffffffffff00000000ffffffff1664010000000063ffffffff8581169182029290921790925560408051918416825260208201929092527f91a3ff80be5536f6b4a03994984844ded4c1470ac2e7c1a1f9445464358788c391015b60405180910390a15050565b61096e8133611b66565b61120b8282611bdb565b60008281526097602052604090206106fa9082611c7d565b61122d8282611c92565b60008281526097602052604090206106fa9082611d15565b600260fb54036112975760405162461bcd60e51b815260206004820152601f60248201527f5265656e7472616e637947756172643a207265656e7472616e742063616c6c006044820152606401610779565b600260fb55565b6001600160a01b038116600090815261012e602052604090205463ffffffff1661096e576040517fbcb8b8fb00000000000000000000000000000000000000000000000000000000815260040160405180910390fd5b60008061131573eeeeeeeeeeeeeeeeeeeeeeeeeeeeeeeeeeeeeeee84610d27565b9050806001600160801b031660000361135a576040517fd69b537900000000000000000000000000000000000000000000000000000000815260040160405180910390fd5b61139a7f00000000000000000000000000000000000000000000000000000000000000006001600160a01b0381169033906001600160801b038516611d2a565b6113ad336001600160801b038516611d5a565b61013080548491906010906113d3908490600160801b90046001600160801b03166132a4565b82546101009290920a6001600160801b038181021990931691831602179091556101315461013054908216600160801b90910490911610159050610688576101305461142d906109c69047906001600160801b0316611960565b61013080546001600160801b03928316600160801b029216919091179055600061146a73eeeeeeeeeeeeeeeeeeeeeeeeeeeeeeeeeeeeeeee610a2c565b73eeeeeeeeeeeeeeeeeeeeeeeeeeeeeeeeeeeeeeee600081905261012f60209081528251818401516001600160801b03908116600160801b029116177f80dff77e1e936c662564150b996baf5db9b7ec2d73ee90f020226755abd1dcc35561012e90527f986499b4ad39bbf2021624cfb3f810f08a98c4a5dc2082f7efd6d3dfbb53ca1a805463ffffffff421663ffffffff19909116179055604051919250907faa86acbf67bc5e97ce95471a279336f9fa5bd2ac8f64e81ac442a0972b0c633b9061153790849061308d565b60405180910390a25092915050565b6000806115538484610d27565b9050806001600160801b0316600003611598576040517fd69b537900000000000000000000000000000000000000000000000000000000815260040160405180910390fd5b806001600160801b03163410156115db576040517f9086bdc100000000000000000000000000000000000000000000000000000000815260040160405180910390fd5b6115f86001600160a01b038516336001600160801b038616611e73565b806001600160801b0316341115610d2057610d2061161f6001600160801b038316346132c4565b3390611d5a565b600160fb55565b600054610100900460ff166116985760405162461bcd60e51b815260206004820152602b60248201527f496e697469616c697a61626c653a20636f6e7472616374206973206e6f74206960448201526a6e697469616c697a696e6760a81b6064820152608401610779565b6116a0611ed8565b6116a8611f53565b6116b0611fc6565b565b80516001600160801b031615806116d4575060208101516001600160801b0316155b1561096e576040517ebfc92100000000000000000000000000000000000000000000000000000000815260040160405180910390fd5b6000806000611719868661206a565b915091508160000361173e57838181611734576117346132d7565b0492505050610d20565b838210611777576040517f35278d1200000000000000000000000000000000000000000000000000000000815260040160405180910390fd5b60006117848787876120a5565b90506000806117948585856120c0565b91509150816000036117bc578681816117af576117af6132d7565b0495505050505050610d20565b60008781038816906117cf8484846120f0565b905060006117eb838b816117e5576117e56132d7565b0461212d565b919091029b9a5050505050505050505050565b60006001600160801b0382111561187d5760405162461bcd60e51b815260206004820152602760248201527f53616665436173743a2076616c756520646f65736e27742066697420696e203160448201527f32382062697473000000000000000000000000000000000000000000000000006064820152608401610779565b5090565b60006001600160a01b03821673eeeeeeeeeeeeeeeeeeeeeeeeeeeeeeeeeeeeeeee036118c057505061013054600160801b90046001600160801b031690565b6106886001600160a01b0383163061214e565b919050565b6000806118e583856132ed565b63ffffffff16905060006118f98486613310565b63ffffffff169050600060405180604001604052808381526020018663ffffffff168152509050600061192b826121f5565b90506119548882602001518660026119439190613417565b845161194f9190613423565b61170a565b98975050505050505050565b600081831061196f5781610d20565b5090919050565b6000610d2083836125ec565b610131546001600160801b03908116908216810361199e575050565b61013180547fffffffffffffffffffffffffffffffff00000000000000000000000000000000166001600160801b0384811691821790925560408051928416835260208301919091527fab3e74195d9db5b0262eea6c76eda46ba8bb5aed6f36164adbce526d219596d191016111eb565b610130546001600160801b039081169082168103611a2b575050565b61013080547fffffffffffffffffffffffffffffffff00000000000000000000000000000000166001600160801b0384811691821792839055600160801b9092049091161115611ab05761013054611a91906109c69047906001600160801b0316611960565b61013080546001600160801b03928316600160801b0292169190911790555b604080516001600160801b038084168252841660208201527f85e15b0826727feb528c06e9d1eec6c462de224bbb5b7c737824ae09ea83a7bc91016111eb565b6000610688825490565b61012d5463ffffffff9081169082168103611b13575050565b61012d805463ffffffff191663ffffffff84811691821790925560408051928416835260208301919091527f04ee60e68c7a4f836ca7ca7f5d9772049ac5846fc054b0d809e0e3de754952b091016111eb565b60008281526065602090815260408083206001600160a01b038516845290915290205460ff166106d157611b9981612616565b611ba4836020612628565b604051602001611bb592919061345e565b60408051601f198184030181529082905262461bcd60e51b8252610779916004016134df565b60008281526065602090815260408083206001600160a01b038516845290915290205460ff166106d15760008281526065602090815260408083206001600160a01b03851684529091529020805460ff19166001179055611c393390565b6001600160a01b0316816001600160a01b0316837f2f8788117e7eff1d82e926ec794901d17c78024a50270940304540a733656f0d60405160405180910390a45050565b6000610d20836001600160a01b038416612851565b60008281526065602090815260408083206001600160a01b038516845290915290205460ff16156106d15760008281526065602090815260408083206001600160a01b0385168085529252808320805460ff1916905551339285917ff6391f5c32d9c69d2a47ea670b442974b53935d1edc7fd64eb21e047a839171b9190a45050565b6000610d20836001600160a01b0384166128a0565b801580611d3b5750611d3b84612993565b611d5457611d546001600160a01b0385168484846129ba565b50505050565b80471015611daa5760405162461bcd60e51b815260206004820152601d60248201527f416464726573733a20696e73756666696369656e742062616c616e63650000006044820152606401610779565b6000826001600160a01b03168260405160006040518083038185875af1925050503d8060008114611df7576040519150601f19603f3d011682016040523d82523d6000602084013e611dfc565b606091505b50509050806106fa5760405162461bcd60e51b815260206004820152603a60248201527f416464726573733a20756e61626c6520746f2073656e642076616c75652c207260448201527f6563697069656e74206d617920686176652072657665727465640000000000006064820152608401610779565b80600003611e8057505050565b611e8983612993565b15611ec4576040516001600160a01b0383169082156108fc029083906000818181858888f19350505050158015611d54573d6000803e3d6000fd5b6106fa6001600160a01b0384168383612a6b565b600054610100900460ff16611f435760405162461bcd60e51b815260206004820152602b60248201527f496e697469616c697a61626c653a20636f6e7472616374206973206e6f74206960448201526a6e697469616c697a696e6760a81b6064820152608401610779565b611f4b612ab4565b6116b0612b1f565b600054610100900460ff16611fbe5760405162461bcd60e51b815260206004820152602b60248201527f496e697469616c697a61626c653a20636f6e7472616374206973206e6f74206960448201526a6e697469616c697a696e6760a81b6064820152608401610779565b6116b0612c00565b600054610100900460ff166120315760405162461bcd60e51b815260206004820152602b60248201527f496e697469616c697a61626c653a20636f6e7472616374206973206e6f74206960448201526a6e697469616c697a696e6760a81b6064820152608401610779565b61203b6002611afa565b612047620d2f00611156565b61205968056bc75e2d63100000611a0f565b6116b0678ac7230489e80000611982565b60008060006120798585612c6b565b905084840280821061209257908190039250905061209e565b60018183030393509150505b9250929050565b600081806120b5576120b56132d7565b838509949350505050565b6000808284106120d657508390508183036120e8565b6120e16001866132c4565b9150508183035b935093915050565b60008061210e8380830381612107576121076132d7565b0460010190565b905082848161211f5761211f6132d7565b048186021795945050505050565b60006001815b6008811015610a255783820260020382029150600101612133565b600061215983612993565b1561216f57506001600160a01b03811631610688565b826040517f70a082310000000000000000000000000000000000000000000000000000000081526001600160a01b03848116600483015291909116906370a0823190602401602060405180830381865afa1580156121d1573d6000803e3d6000fd5b505050506040513d601f19601f82011682018060405250810190610d209190613512565b6040805180820190915260008082526020820152600061222e6f58b90bfbe8e7bcd5e4f1d9cc01f97b578460000151856020015161170a565b905060008080700800000000000000000000000000000000841061227e576040517f35278d1200000000000000000000000000000000000000000000000000000000815260040160405180910390fd5b6f10000000000000000000000000000000840692508291506001607f1b8280020491506710e1b3be415a00008202016001607f1b8383020491506705a0913f6b1e00008202016001607f1b838302049150670168244fdac780008202016001607f1b838302049150664807432bc180008202016001607f1b838302049150660c0135dca040008202016001607f1b8383020491506601b707b1cdc0008202016001607f1b8383020491506536e0f639b8008202016001607f1b838302049150650618fee9f8008202016001607f1b838302049150649c197dcc008202016001607f1b838302049150640e30dce4008202016001607f1b83830204915064012ebd13008202016001607f1b8383020491506317499f008202016001607f1b8383020491506301a9d4808202016001607f1b838302049150621c63808202016001607f1b8383020491506201c6388202016001607f1b838302049150611ab88202016001607f1b83830204915061017c8202016001607f1b83830204915060148202016001607f1b83830204915081016001607f1b836721c3677c82b400008304010190506f100000000000000000000000000000008416156124635770018ebef9eac820ae8682b9793ac6d1e7767001c3d6a24ed82218787d624d3e5eba95f982020490505b6f200000000000000000000000000000008416156124a5577001368b2fc6f9609fe7aceb46aa619baed470018ebef9eac820ae8682b9793ac6d1e77882020490505b6f400000000000000000000000000000008416156124e6576fbc5ab1b16779be3575bd8f0520a9f21f7001368b2fc6f9609fe7aceb46aa619baed582020490505b6001607f1b84161561251a576f454aaa8efe072e7f6ddbab84b40a55c96fbc5ab1b16779be3575bd8f0520a9f21e82020490505b600160801b84161561254e576f0960aadc109e7a3bf4578099615711ea6f454aaa8efe072e7f6ddbab84b40a55c582020490505b70020000000000000000000000000000000084161561258e576e2bf84208204f5977f9a8cf01fdce3d6f0960aadc109e7a3bf4578099615711d782020490505b7004000000000000000000000000000000008416156125cc576d03c6ab775dd0b95b4cbee7e65d116e2bf84208204f5977f9a8cf01fdc30782020490505b604080518082019091529081526001607f1b602082015295945050505050565b60008260000182815481106126035761260361352b565b9060005260206000200154905092915050565b60606106886001600160a01b03831660145b60606000612637836002613423565b612642906002613541565b67ffffffffffffffff81111561265a5761265a613123565b6040519080825280601f01601f191660200182016040528015612684576020820181803683370190505b5090507f3000000000000000000000000000000000000000000000000000000000000000816000815181106126bb576126bb61352b565b60200101907effffffffffffffffffffffffffffffffffffffffffffffffffffffffffffff1916908160001a9053507f78000000000000000000000000000000000000000000000000000000000000008160018151811061271e5761271e61352b565b60200101907effffffffffffffffffffffffffffffffffffffffffffffffffffffffffffff1916908160001a905350600061275a846002613423565b612765906001613541565b90505b6001811115612802577f303132333435363738396162636465660000000000000000000000000000000085600f16601081106127a6576127a661352b565b1a60f81b8282815181106127bc576127bc61352b565b60200101907effffffffffffffffffffffffffffffffffffffffffffffffffffffffffffff1916908160001a90535060049490941c936127fb81613554565b9050612768565b508315610d205760405162461bcd60e51b815260206004820181905260248201527f537472696e67733a20686578206c656e67746820696e73756666696369656e746044820152606401610779565b600081815260018301602052604081205461289857508154600181810184556000848152602080822090930184905584548482528286019093526040902091909155610688565b506000610688565b600081815260018301602052604081205480156129895760006128c46001836132c4565b85549091506000906128d8906001906132c4565b905081811461293d5760008660000182815481106128f8576128f861352b565b906000526020600020015490508087600001848154811061291b5761291b61352b565b6000918252602080832090910192909255918252600188019052604090208390555b855486908061294e5761294e61356b565b600190038181906000526020600020016000905590558560010160008681526020019081526020016000206000905560019350505050610688565b6000915050610688565b60006001600160a01b03821673eeeeeeeeeeeeeeeeeeeeeeeeeeeeeeeeeeeeeeee14610688565b6040516001600160a01b0380851660248301528316604482015260648101829052611d549085907f23b872dd00000000000000000000000000000000000000000000000000000000906084015b60408051601f198184030181529190526020810180517bffffffffffffffffffffffffffffffffffffffffffffffffffffffff167fffffffff0000000000000000000000000000000000000000000000000000000090931692909217909152612c7a565b6040516001600160a01b0383166024820152604481018290526106fa9084907fa9059cbb0000000000000000000000000000000000000000000000000000000090606401612a07565b600054610100900460ff166116b05760405162461bcd60e51b815260206004820152602b60248201527f496e697469616c697a61626c653a20636f6e7472616374206973206e6f74206960448201526a6e697469616c697a696e6760a81b6064820152608401610779565b600054610100900460ff16612b8a5760405162461bcd60e51b815260206004820152602b60248201527f496e697469616c697a61626c653a20636f6e7472616374206973206e6f74206960448201526a6e697469616c697a696e6760a81b6064820152608401610779565b612b9660016002613581565b60c9805461ffff191661ffff92909216919091179055612bd67f2172861495e7b85edac73e3cd5fbb42dd675baadf627720e687bcfdaca02509680612d62565b6116b07f2172861495e7b85edac73e3cd5fbb42dd675baadf627720e687bcfdaca02509633612dad565b600054610100900460ff166116265760405162461bcd60e51b815260206004820152602b60248201527f496e697469616c697a61626c653a20636f6e7472616374206973206e6f74206960448201526a6e697469616c697a696e6760a81b6064820152608401610779565b60006000198284099392505050565b6000612ccf826040518060400160405280602081526020017f5361666545524332303a206c6f772d6c6576656c2063616c6c206661696c6564815250856001600160a01b0316612db79092919063ffffffff16565b9050805160001480612cf0575080806020019051810190612cf0919061359c565b6106fa5760405162461bcd60e51b815260206004820152602a60248201527f5361666545524332303a204552433230206f7065726174696f6e20646964206e60448201527f6f742073756363656564000000000000000000000000000000000000000000006064820152608401610779565b600082815260656020526040808220600101805490849055905190918391839186917fbd79b86ffe0ab8e8776151514217cd7cacd52c909f66475c3af44e129f0b00ff9190a4505050565b6106d18282611201565b6060612dc68484600085612dce565b949350505050565b606082471015612e465760405162461bcd60e51b815260206004820152602660248201527f416464726573733a20696e73756666696369656e742062616c616e636520666f60448201527f722063616c6c00000000000000000000000000000000000000000000000000006064820152608401610779565b600080866001600160a01b03168587604051612e6291906135be565b60006040518083038185875af1925050503d8060008114612e9f576040519150601f19603f3d011682016040523d82523d6000602084013e612ea4565b606091505b5091509150612eb587838387612ec0565b979650505050505050565b60608315612f2f578251600003612f28576001600160a01b0385163b612f285760405162461bcd60e51b815260206004820152601d60248201527f416464726573733a2063616c6c20746f206e6f6e2d636f6e74726163740000006044820152606401610779565b5081612dc6565b612dc68383815115612f445781518083602001fd5b8060405162461bcd60e51b815260040161077991906134df565b600060208284031215612f7057600080fd5b81357fffffffff0000000000000000000000000000000000000000000000000000000081168114610d2057600080fd5b600060208284031215612fb257600080fd5b813563ffffffff81168114610d2057600080fd5b600060208284031215612fd857600080fd5b5035919050565b6001600160a01b038116811461096e57600080fd5b6000806040838503121561300757600080fd5b82359150602083013561301981612fdf565b809150509250929050565b80356001600160801b03811681146118d357600080fd5b6000806040838503121561304e57600080fd5b823561305981612fdf565b915061306760208401613024565b90509250929050565b60006020828403121561308257600080fd5b8135610d2081612fdf565b60408101610688828480516001600160801b03908116835260209182015116910152565b600080602083850312156130c457600080fd5b823567ffffffffffffffff808211156130dc57600080fd5b818501915085601f8301126130f057600080fd5b8135818111156130ff57600080fd5b86602082850101111561311157600080fd5b60209290920196919550909350505050565b634e487b7160e01b600052604160045260246000fd5b60006040828403121561314b57600080fd5b6040516040810181811067ffffffffffffffff8211171561317c57634e487b7160e01b600052604160045260246000fd5b60405290508061318b83613024565b815261319960208401613024565b60208201525092915050565b6000604082840312156131b757600080fd5b610d208383613139565b600080604083850312156131d457600080fd5b50508035926020909101359150565b6000602082840312156131f557600080fd5b610d2082613024565b6000806060838503121561321157600080fd5b823561321c81612fdf565b91506130678460208501613139565b634e487b7160e01b600052601160045260246000fd5b63ffffffff828116828216039080821115610a2557610a2561322b565b6001600160801b038181168382160280821691908281146132815761328161322b565b505092915050565b61ffff818116838216019080821115610a2557610a2561322b565b6001600160801b03828116828216039080821115610a2557610a2561322b565b818103818111156106885761068861322b565b634e487b7160e01b600052601260045260246000fd5b600063ffffffff80841680613304576133046132d7565b92169190910492915050565b600063ffffffff80841680613327576133276132d7565b92169190910692915050565b600181815b8085111561336e5781600019048211156133545761335461322b565b8085161561336157918102915b93841c9390800290613338565b509250929050565b60008261338557506001610688565b8161339257506000610688565b81600181146133a857600281146133b2576133ce565b6001915050610688565b60ff8411156133c3576133c361322b565b50506001821b610688565b5060208310610133831016604e8410600b84101617156133f1575081810a610688565b6133fb8383613333565b806000190482111561340f5761340f61322b565b029392505050565b6000610d208383613376565b80820281158282048414176106885761068861322b565b60005b8381101561345557818101518382015260200161343d565b50506000910152565b7f416363657373436f6e74726f6c3a206163636f756e742000000000000000000081526000835161349681601785016020880161343a565b7f206973206d697373696e6720726f6c652000000000000000000000000000000060179184019182015283516134d381602884016020880161343a565b01602801949350505050565b60208152600082518060208401526134fe81604085016020870161343a565b601f01601f19169190910160400192915050565b60006020828403121561352457600080fd5b5051919050565b634e487b7160e01b600052603260045260246000fd5b808201808211156106885761068861322b565b6000816135635761356361322b565b506000190190565b634e487b7160e01b600052603160045260246000fd5b61ffff828116828216039080821115610a2557610a2561322b565b6000602082840312156135ae57600080fd5b81518015158114610d2057600080fd5b600082516135d081846020870161343a565b919091019291505056fea164736f6c6343000813000a2172861495e7b85edac73e3cd5fbb42dd675baadf627720e687bcfdaca025096496e697469616c697a61626c653a20636f6e7472616374206973206e6f742069",
  "linkReferences": {},
  "deployedLinkReferences": {}
}