{
  "_format": "hh-sol-artifact-1",
  "contractName": "TestVault",
  "sourceName": "contracts/helpers/TestVault.sol",
  "abi": [
    {
      "inputs": [],
      "stateMutability": "nonpayable",
      "type": "constructor"
    },
    {
      "inputs": [],
      "name": "AccessDenied",
      "type": "error"
    },
    {
      "inputs": [],
      "name": "InvalidAddress",
      "type": "error"
    },
    {
      "anonymous": false,
      "inputs": [
        {
          "indexed": true,
          "internalType": "Token",
          "name": "token",
          "type": "address"
        },
        {
          "indexed": true,
          "internalType": "address",
          "name": "caller",
          "type": "address"
        },
        {
          "indexed": true,
          "internalType": "address",
          "name": "target",
          "type": "address"
        },
        {
          "indexed": false,
          "internalType": "uint256",
          "name": "amount",
          "type": "uint256"
        }
      ],
      "name": "FundsWithdrawn",
      "type": "event"
    },
    {
      "anonymous": false,
      "inputs": [
        {
          "indexed": true,
          "internalType": "bytes32",
          "name": "role",
          "type": "bytes32"
        },
        {
          "indexed": true,
          "internalType": "bytes32",
          "name": "previousAdminRole",
          "type": "bytes32"
        },
        {
          "indexed": true,
          "internalType": "bytes32",
          "name": "newAdminRole",
          "type": "bytes32"
        }
      ],
      "name": "RoleAdminChanged",
      "type": "event"
    },
    {
      "anonymous": false,
      "inputs": [
        {
          "indexed": true,
          "internalType": "bytes32",
          "name": "role",
          "type": "bytes32"
        },
        {
          "indexed": true,
          "internalType": "address",
          "name": "account",
          "type": "address"
        },
        {
          "indexed": true,
          "internalType": "address",
          "name": "sender",
          "type": "address"
        }
      ],
      "name": "RoleGranted",
      "type": "event"
    },
    {
      "anonymous": false,
      "inputs": [
        {
          "indexed": true,
          "internalType": "bytes32",
          "name": "role",
          "type": "bytes32"
        },
        {
          "indexed": true,
          "internalType": "address",
          "name": "account",
          "type": "address"
        },
        {
          "indexed": true,
          "internalType": "address",
          "name": "sender",
          "type": "address"
        }
      ],
      "name": "RoleRevoked",
      "type": "event"
    },
    {
      "inputs": [],
      "name": "DEFAULT_ADMIN_ROLE",
      "outputs": [
        {
          "internalType": "bytes32",
          "name": "",
          "type": "bytes32"
        }
      ],
      "stateMutability": "view",
      "type": "function"
    },
    {
      "inputs": [
        {
          "internalType": "bytes32",
          "name": "role",
          "type": "bytes32"
        }
      ],
      "name": "getRoleAdmin",
      "outputs": [
        {
          "internalType": "bytes32",
          "name": "",
          "type": "bytes32"
        }
      ],
      "stateMutability": "view",
      "type": "function"
    },
    {
      "inputs": [
        {
          "internalType": "bytes32",
          "name": "role",
          "type": "bytes32"
        },
        {
          "internalType": "uint256",
          "name": "index",
          "type": "uint256"
        }
      ],
      "name": "getRoleMember",
      "outputs": [
        {
          "internalType": "address",
          "name": "",
          "type": "address"
        }
      ],
      "stateMutability": "view",
      "type": "function"
    },
    {
      "inputs": [
        {
          "internalType": "bytes32",
          "name": "role",
          "type": "bytes32"
        }
      ],
      "name": "getRoleMemberCount",
      "outputs": [
        {
          "internalType": "uint256",
          "name": "",
          "type": "uint256"
        }
      ],
      "stateMutability": "view",
      "type": "function"
    },
    {
      "inputs": [
        {
          "internalType": "bytes32",
          "name": "role",
          "type": "bytes32"
        },
        {
          "internalType": "address",
          "name": "account",
          "type": "address"
        }
      ],
      "name": "grantRole",
      "outputs": [],
      "stateMutability": "nonpayable",
      "type": "function"
    },
    {
      "inputs": [
        {
          "internalType": "bytes32",
          "name": "role",
          "type": "bytes32"
        },
        {
          "internalType": "address",
          "name": "account",
          "type": "address"
        }
      ],
      "name": "hasRole",
      "outputs": [
        {
          "internalType": "bool",
          "name": "",
          "type": "bool"
        }
      ],
      "stateMutability": "view",
      "type": "function"
    },
    {
      "inputs": [
        {
          "internalType": "bytes32",
          "name": "role",
          "type": "bytes32"
        },
        {
          "internalType": "address",
          "name": "account",
          "type": "address"
        }
      ],
      "name": "renounceRole",
      "outputs": [],
      "stateMutability": "nonpayable",
      "type": "function"
    },
    {
      "inputs": [
        {
          "internalType": "bytes32",
          "name": "role",
          "type": "bytes32"
        },
        {
          "internalType": "address",
          "name": "account",
          "type": "address"
        }
      ],
      "name": "revokeRole",
      "outputs": [],
      "stateMutability": "nonpayable",
      "type": "function"
    },
    {
      "inputs": [],
      "name": "roleAdmin",
      "outputs": [
        {
          "internalType": "bytes32",
          "name": "",
          "type": "bytes32"
        }
      ],
      "stateMutability": "pure",
      "type": "function"
    },
    {
      "inputs": [],
      "name": "roleAssetManager",
      "outputs": [
        {
          "internalType": "bytes32",
          "name": "",
          "type": "bytes32"
        }
      ],
      "stateMutability": "pure",
      "type": "function"
    },
    {
      "inputs": [
        {
          "internalType": "bytes4",
          "name": "interfaceId",
          "type": "bytes4"
        }
      ],
      "name": "supportsInterface",
      "outputs": [
        {
          "internalType": "bool",
          "name": "",
          "type": "bool"
        }
      ],
      "stateMutability": "view",
      "type": "function"
    },
    {
      "inputs": [
        {
          "internalType": "Token",
          "name": "token",
          "type": "address"
        },
        {
          "internalType": "address payable",
          "name": "target",
          "type": "address"
        },
        {
          "internalType": "uint256",
          "name": "amount",
          "type": "uint256"
        }
      ],
      "name": "withdrawFunds",
      "outputs": [],
      "stateMutability": "nonpayable",
      "type": "function"
    },
    {
      "stateMutability": "payable",
      "type": "receive"
    }
  ],
  "bytecode": "0x60806040523480156200001157600080fd5b50600160005562000032600080516020620015de833981519152806200008e565b6200006d7f89ce14d20697a788f57260f7690044299bde7ea88cfb7e43d120a0c031f1ffc1600080516020620015de8339815191526200008e565b62000088600080516020620015de83398151915233620000db565b62000210565b6000828152600160208190526040808320909101805490849055905190918391839186917fbd79b86ffe0ab8e8776151514217cd7cacd52c909f66475c3af44e129f0b00ff9190a4505050565b620000e78282620000eb565b5050565b620000f7828262000116565b60008281526002602052604090206200011190826200019e565b505050565b60008281526001602090815260408083206001600160a01b038516845290915290205460ff16620000e75760008281526001602081815260408084206001600160a01b0386168086529252808420805460ff19169093179092559051339285917f2f8788117e7eff1d82e926ec794901d17c78024a50270940304540a733656f0d9190a45050565b6000620001b5836001600160a01b038416620001be565b90505b92915050565b60008181526001830160205260408120546200020757508154600181810184556000848152602080822090930184905584548482528286019093526040902091909155620001b8565b506000620001b8565b6113be80620002206000396000f3fe6080604052600436106100cb5760003560e01c806391d1485411610074578063a217fddf1161004e578063a217fddf14610291578063ca15c873146102a6578063d547741f146102c657600080fd5b806391d14854146101e557806392bd95ea1461022b57806393867fb51461025e57600080fd5b80632f2ff15d116100a55780632f2ff15d1461016d57806336568abe1461018d5780639010d07c146101ad57600080fd5b806301ffc9a7146100d75780631c20fadd1461010c578063248a9ca31461012e57600080fd5b366100d257005b600080fd5b3480156100e357600080fd5b506100f76100f23660046110ce565b6102e6565b60405190151581526020015b60405180910390f35b34801561011857600080fd5b5061012c610127366004611125565b610342565b005b34801561013a57600080fd5b5061015f610149366004611166565b6000908152600160208190526040909120015490565b604051908152602001610103565b34801561017957600080fd5b5061012c61018836600461117f565b61043e565b34801561019957600080fd5b5061012c6101a836600461117f565b610469565b3480156101b957600080fd5b506101cd6101c83660046111af565b6104fa565b6040516001600160a01b039091168152602001610103565b3480156101f157600080fd5b506100f761020036600461117f565b60009182526001602090815260408084206001600160a01b0393909316845291905290205460ff1690565b34801561023757600080fd5b507f89ce14d20697a788f57260f7690044299bde7ea88cfb7e43d120a0c031f1ffc161015f565b34801561026a57600080fd5b507f2172861495e7b85edac73e3cd5fbb42dd675baadf627720e687bcfdaca02509661015f565b34801561029d57600080fd5b5061015f600081565b3480156102b257600080fd5b5061015f6102c1366004611166565b610519565b3480156102d257600080fd5b5061012c6102e136600461117f565b610530565b60007fffffffff0000000000000000000000000000000000000000000000000000000082167f5a05180f00000000000000000000000000000000000000000000000000000000148061033c575061033c82610556565b92915050565b8161034c816105ed565b610354610630565b3360009081527f620a24bca14c153ba0bbdd11350de229d64f1884342061de1b92f9034e0a7df0602052604090205460ff166103bc576040517f4ca8886700000000000000000000000000000000000000000000000000000000815260040160405180910390fd5b811561042e576103d66001600160a01b0385168484610689565b826001600160a01b0316336001600160a01b0316856001600160a01b03167fc322efa58c9cb2c39cfffdac61d35c8643f5cbf13c6a7d0034de2cf18923aff38560405161042591815260200190565b60405180910390a45b6104386001600055565b50505050565b6000828152600160208190526040909120015461045a816106cb565b61046483836106d5565b505050565b6001600160a01b03811633146104ec5760405162461bcd60e51b815260206004820152602f60248201527f416363657373436f6e74726f6c3a2063616e206f6e6c792072656e6f756e636560448201527f20726f6c657320666f722073656c66000000000000000000000000000000000060648201526084015b60405180910390fd5b6104f682826106f7565b5050565b60008281526002602052604081206105129083610719565b9392505050565b600081815260026020526040812061033c90610725565b6000828152600160208190526040909120015461054c816106cb565b61046483836106f7565b60007fffffffff0000000000000000000000000000000000000000000000000000000082167f7965db0b00000000000000000000000000000000000000000000000000000000148061033c57507f01ffc9a7000000000000000000000000000000000000000000000000000000007fffffffff0000000000000000000000000000000000000000000000000000000083161461033c565b6001600160a01b03811661062d576040517fe6c4247b00000000000000000000000000000000000000000000000000000000815260040160405180910390fd5b50565b6002600054036106825760405162461bcd60e51b815260206004820152601f60248201527f5265656e7472616e637947756172643a207265656e7472616e742063616c6c0060448201526064016104e3565b6002600055565b8060000361069657505050565b61069f8361072f565b156106b7576104646001600160a01b03831682610756565b6104646001600160a01b038416838361086f565b61062d81336108ef565b6106df8282610964565b600082815260026020526040902061046490826109eb565b6107018282610a00565b60008281526002602052604090206104649082610a83565b60006105128383610a98565b600061033c825490565b60006001600160a01b03821673eeeeeeeeeeeeeeeeeeeeeeeeeeeeeeeeeeeeeeee1461033c565b804710156107a65760405162461bcd60e51b815260206004820152601d60248201527f416464726573733a20696e73756666696369656e742062616c616e636500000060448201526064016104e3565b6000826001600160a01b03168260405160006040518083038185875af1925050503d80600081146107f3576040519150601f19603f3d011682016040523d82523d6000602084013e6107f8565b606091505b50509050806104645760405162461bcd60e51b815260206004820152603a60248201527f416464726573733a20756e61626c6520746f2073656e642076616c75652c207260448201527f6563697069656e74206d6179206861766520726576657274656400000000000060648201526084016104e3565b604080516001600160a01b038416602482015260448082018490528251808303909101815260649091019091526020810180517bffffffffffffffffffffffffffffffffffffffffffffffffffffffff167fa9059cbb00000000000000000000000000000000000000000000000000000000179052610464908490610ac2565b60008281526001602090815260408083206001600160a01b038516845290915290205460ff166104f65761092281610baa565b61092d836020610bbc565b60405160200161093e9291906111f5565b60408051601f198184030181529082905262461bcd60e51b82526104e391600401611276565b60008281526001602090815260408083206001600160a01b038516845290915290205460ff166104f65760008281526001602081815260408084206001600160a01b0386168086529252808420805460ff19169093179092559051339285917f2f8788117e7eff1d82e926ec794901d17c78024a50270940304540a733656f0d9190a45050565b6000610512836001600160a01b038416610de5565b60008281526001602090815260408083206001600160a01b038516845290915290205460ff16156104f65760008281526001602090815260408083206001600160a01b0385168085529252808320805460ff1916905551339285917ff6391f5c32d9c69d2a47ea670b442974b53935d1edc7fd64eb21e047a839171b9190a45050565b6000610512836001600160a01b038416610e34565b6000826000018281548110610aaf57610aaf6112a9565b9060005260206000200154905092915050565b6000610b17826040518060400160405280602081526020017f5361666545524332303a206c6f772d6c6576656c2063616c6c206661696c6564815250856001600160a01b0316610f279092919063ffffffff16565b9050805160001480610b38575080806020019051810190610b3891906112bf565b6104645760405162461bcd60e51b815260206004820152602a60248201527f5361666545524332303a204552433230206f7065726174696f6e20646964206e60448201527f6f7420737563636565640000000000000000000000000000000000000000000060648201526084016104e3565b606061033c6001600160a01b03831660145b60606000610bcb8360026112f7565b610bd690600261130e565b67ffffffffffffffff811115610bee57610bee611321565b6040519080825280601f01601f191660200182016040528015610c18576020820181803683370190505b5090507f300000000000000000000000000000000000000000000000000000000000000081600081518110610c4f57610c4f6112a9565b60200101907effffffffffffffffffffffffffffffffffffffffffffffffffffffffffffff1916908160001a9053507f780000000000000000000000000000000000000000000000000000000000000081600181518110610cb257610cb26112a9565b60200101907effffffffffffffffffffffffffffffffffffffffffffffffffffffffffffff1916908160001a9053506000610cee8460026112f7565b610cf990600161130e565b90505b6001811115610d96577f303132333435363738396162636465660000000000000000000000000000000085600f1660108110610d3a57610d3a6112a9565b1a60f81b828281518110610d5057610d506112a9565b60200101907effffffffffffffffffffffffffffffffffffffffffffffffffffffffffffff1916908160001a90535060049490941c93610d8f81611337565b9050610cfc565b5083156105125760405162461bcd60e51b815260206004820181905260248201527f537472696e67733a20686578206c656e67746820696e73756666696369656e7460448201526064016104e3565b6000818152600183016020526040812054610e2c5750815460018181018455600084815260208082209093018490558454848252828601909352604090209190915561033c565b50600061033c565b60008181526001830160205260408120548015610f1d576000610e5860018361136c565b8554909150600090610e6c9060019061136c565b9050818114610ed1576000866000018281548110610e8c57610e8c6112a9565b9060005260206000200154905080876000018481548110610eaf57610eaf6112a9565b6000918252602080832090910192909255918252600188019052604090208390555b8554869080610ee257610ee261137f565b60019003818190600052602060002001600090559055856001016000868152602001908152602001600020600090556001935050505061033c565b600091505061033c565b6060610f368484600085610f3e565b949350505050565b606082471015610fb65760405162461bcd60e51b815260206004820152602660248201527f416464726573733a20696e73756666696369656e742062616c616e636520666f60448201527f722063616c6c000000000000000000000000000000000000000000000000000060648201526084016104e3565b600080866001600160a01b03168587604051610fd29190611395565b60006040518083038185875af1925050503d806000811461100f576040519150601f19603f3d011682016040523d82523d6000602084013e611014565b606091505b509150915061102587838387611030565b979650505050505050565b6060831561109f578251600003611098576001600160a01b0385163b6110985760405162461bcd60e51b815260206004820152601d60248201527f416464726573733a2063616c6c20746f206e6f6e2d636f6e747261637400000060448201526064016104e3565b5081610f36565b610f3683838151156110b45781518083602001fd5b8060405162461bcd60e51b81526004016104e39190611276565b6000602082840312156110e057600080fd5b81357fffffffff000000000000000000000000000000000000000000000000000000008116811461051257600080fd5b6001600160a01b038116811461062d57600080fd5b60008060006060848603121561113a57600080fd5b833561114581611110565b9250602084013561115581611110565b929592945050506040919091013590565b60006020828403121561117857600080fd5b5035919050565b6000806040838503121561119257600080fd5b8235915060208301356111a481611110565b809150509250929050565b600080604083850312156111c257600080fd5b50508035926020909101359150565b60005b838110156111ec5781810151838201526020016111d4565b50506000910152565b7f416363657373436f6e74726f6c3a206163636f756e742000000000000000000081526000835161122d8160178501602088016111d1565b7f206973206d697373696e6720726f6c6520000000000000000000000000000000601791840191820152835161126a8160288401602088016111d1565b01602801949350505050565b60208152600082518060208401526112958160408501602087016111d1565b601f01601f19169190910160400192915050565b634e487b7160e01b600052603260045260246000fd5b6000602082840312156112d157600080fd5b8151801515811461051257600080fd5b634e487b7160e01b600052601160045260246000fd5b808202811582820484141761033c5761033c6112e1565b8082018082111561033c5761033c6112e1565b634e487b7160e01b600052604160045260246000fd5b600081611346576113466112e1565b507fffffffffffffffffffffffffffffffffffffffffffffffffffffffffffffffff0190565b8181038181111561033c5761033c6112e1565b634e487b7160e01b600052603160045260246000fd5b600082516113a78184602087016111d1565b919091019291505056fea164736f6c6343000813000a2172861495e7b85edac73e3cd5fbb42dd675baadf627720e687bcfdaca025096",
  "linkReferences": {},
  "deployedLinkReferences": {}
}