{
  "_format": "hh-sol-artifact-1",
  "contractName": "CarbonVortex",
  "sourceName": "contracts/vortex/CarbonVortex.sol",
  "abi": [
    {
      "inputs": [
        {
          "internalType": "contract ICarbonController",
          "name": "carbonController",
          "type": "address"
        },
        {
          "internalType": "contract IVault",
          "name": "vault",
          "type": "address"
        },
        {
          "internalType": "contract IVault",
          "name": "oldVortex",
          "type": "address"
        },
        {
          "internalType": "address payable",
          "name": "transferAddress",
          "type": "address"
        },
        {
          "internalType": "Token",
          "name": "targetTokenInit",
          "type": "address"
        },
        {
          "internalType": "Token",
          "name": "finalTargetTokenInit",
          "type": "address"
        }
      ],
      "stateMutability": "nonpayable",
      "type": "constructor"
    },
    {
      "inputs": [],
      "name": "AccessDenied",
      "type": "error"
    },
    {
      "inputs": [],
      "name": "AlreadyInitialized",
      "type": "error"
    },
    {
      "inputs": [],
      "name": "DuplicateToken",
      "type": "error"
    },
    {
      "inputs": [],
      "name": "InsufficientAmountForTrading",
      "type": "error"
    },
    {
      "inputs": [],
      "name": "InsufficientNativeTokenSent",
      "type": "error"
    },
    {
      "inputs": [],
      "name": "InvalidAddress",
      "type": "error"
    },
    {
      "inputs": [],
      "name": "InvalidAmountLength",
      "type": "error"
    },
    {
      "inputs": [],
      "name": "InvalidFee",
      "type": "error"
    },
    {
      "inputs": [],
      "name": "InvalidPrice",
      "type": "error"
    },
    {
      "inputs": [],
      "name": "InvalidToken",
      "type": "error"
    },
    {
      "inputs": [],
      "name": "InvalidTokenLength",
      "type": "error"
    },
    {
      "inputs": [],
      "name": "InvalidTrade",
      "type": "error"
    },
    {
      "inputs": [],
      "name": "Overflow",
      "type": "error"
    },
    {
      "inputs": [],
      "name": "PairDisabled",
      "type": "error"
    },
    {
      "inputs": [],
      "name": "TradingDisabled",
      "type": "error"
    },
    {
      "inputs": [],
      "name": "ZeroValue",
      "type": "error"
    },
    {
      "anonymous": false,
      "inputs": [
        {
          "indexed": true,
          "internalType": "Token[]",
          "name": "tokens",
          "type": "address[]"
        },
        {
          "indexed": true,
          "internalType": "address",
          "name": "caller",
          "type": "address"
        },
        {
          "indexed": true,
          "internalType": "address",
          "name": "target",
          "type": "address"
        },
        {
          "indexed": false,
          "internalType": "uint256[]",
          "name": "amounts",
          "type": "uint256[]"
        }
      ],
      "name": "FundsWithdrawn",
      "type": "event"
    },
    {
      "anonymous": false,
      "inputs": [
        {
          "indexed": false,
          "internalType": "uint8",
          "name": "version",
          "type": "uint8"
        }
      ],
      "name": "Initialized",
      "type": "event"
    },
    {
      "anonymous": false,
      "inputs": [
        {
          "indexed": false,
          "internalType": "uint128",
          "name": "prevTargetTokenSaleAmount",
          "type": "uint128"
        },
        {
          "indexed": false,
          "internalType": "uint128",
          "name": "newTargetTokenSaleAmount",
          "type": "uint128"
        }
      ],
      "name": "MaxTargetTokenSaleAmountUpdated",
      "type": "event"
    },
    {
      "anonymous": false,
      "inputs": [
        {
          "indexed": false,
          "internalType": "uint32",
          "name": "prevMinTokenSaleAmountMultiplier",
          "type": "uint32"
        },
        {
          "indexed": false,
          "internalType": "uint32",
          "name": "newMinTokenSaleAmountMultiplier",
          "type": "uint32"
        }
      ],
      "name": "MinTokenSaleAmountMultiplierUpdated",
      "type": "event"
    },
    {
      "anonymous": false,
      "inputs": [
        {
          "indexed": true,
          "internalType": "Token",
          "name": "token",
          "type": "address"
        },
        {
          "indexed": false,
          "internalType": "uint128",
          "name": "prevMinTokenSaleAmount",
          "type": "uint128"
        },
        {
          "indexed": false,
          "internalType": "uint128",
          "name": "newMinTokenSaleAmount",
          "type": "uint128"
        }
      ],
      "name": "MinTokenSaleAmountUpdated",
      "type": "event"
    },
    {
      "anonymous": false,
      "inputs": [
        {
          "indexed": true,
          "internalType": "Token",
          "name": "token",
          "type": "address"
        },
        {
          "indexed": false,
          "internalType": "bool",
          "name": "prevStatus",
          "type": "bool"
        },
        {
          "indexed": false,
          "internalType": "bool",
          "name": "newStatus",
          "type": "bool"
        }
      ],
      "name": "PairDisabledStatusUpdated",
      "type": "event"
    },
    {
      "anonymous": false,
      "inputs": [
        {
          "indexed": false,
          "internalType": "uint32",
          "name": "prevPriceDecayHalfLife",
          "type": "uint32"
        },
        {
          "indexed": false,
          "internalType": "uint32",
          "name": "newPriceDecayHalfLife",
          "type": "uint32"
        }
      ],
      "name": "PriceDecayHalfLifeUpdated",
      "type": "event"
    },
    {
      "anonymous": false,
      "inputs": [
        {
          "indexed": false,
          "internalType": "uint32",
          "name": "prevPriceResetMultiplier",
          "type": "uint32"
        },
        {
          "indexed": false,
          "internalType": "uint32",
          "name": "newPriceResetMultiplier",
          "type": "uint32"
        }
      ],
      "name": "PriceResetMultiplierUpdated",
      "type": "event"
    },
    {
      "anonymous": false,
      "inputs": [
        {
          "indexed": true,
          "internalType": "Token",
          "name": "token",
          "type": "address"
        },
        {
          "components": [
            {
              "internalType": "uint128",
              "name": "sourceAmount",
              "type": "uint128"
            },
            {
              "internalType": "uint128",
              "name": "targetAmount",
              "type": "uint128"
            }
          ],
          "indexed": false,
          "internalType": "struct ICarbonVortex.Price",
          "name": "price",
          "type": "tuple"
        }
      ],
      "name": "PriceUpdated",
      "type": "event"
    },
    {
      "anonymous": false,
      "inputs": [
        {
          "indexed": false,
          "internalType": "uint32",
          "name": "prevRewardsPPM",
          "type": "uint32"
        },
        {
          "indexed": false,
          "internalType": "uint32",
          "name": "newRewardsPPM",
          "type": "uint32"
        }
      ],
      "name": "RewardsUpdated",
      "type": "event"
    },
    {
      "anonymous": false,
      "inputs": [
        {
          "indexed": true,
          "internalType": "bytes32",
          "name": "role",
          "type": "bytes32"
        },
        {
          "indexed": true,
          "internalType": "bytes32",
          "name": "previousAdminRole",
          "type": "bytes32"
        },
        {
          "indexed": true,
          "internalType": "bytes32",
          "name": "newAdminRole",
          "type": "bytes32"
        }
      ],
      "name": "RoleAdminChanged",
      "type": "event"
    },
    {
      "anonymous": false,
      "inputs": [
        {
          "indexed": true,
          "internalType": "bytes32",
          "name": "role",
          "type": "bytes32"
        },
        {
          "indexed": true,
          "internalType": "address",
          "name": "account",
          "type": "address"
        },
        {
          "indexed": true,
          "internalType": "address",
          "name": "sender",
          "type": "address"
        }
      ],
      "name": "RoleGranted",
      "type": "event"
    },
    {
      "anonymous": false,
      "inputs": [
        {
          "indexed": true,
          "internalType": "bytes32",
          "name": "role",
          "type": "bytes32"
        },
        {
          "indexed": true,
          "internalType": "address",
          "name": "account",
          "type": "address"
        },
        {
          "indexed": true,
          "internalType": "address",
          "name": "sender",
          "type": "address"
        }
      ],
      "name": "RoleRevoked",
      "type": "event"
    },
    {
      "anonymous": false,
      "inputs": [
        {
          "indexed": false,
          "internalType": "uint32",
          "name": "prevPriceDecayHalfLife",
          "type": "uint32"
        },
        {
          "indexed": false,
          "internalType": "uint32",
          "name": "newPriceDecayHalfLife",
          "type": "uint32"
        }
      ],
      "name": "TargetTokenPriceDecayHalfLifeOnResetUpdated",
      "type": "event"
    },
    {
      "anonymous": false,
      "inputs": [
        {
          "indexed": false,
          "internalType": "uint32",
          "name": "prevPriceDecayHalfLife",
          "type": "uint32"
        },
        {
          "indexed": false,
          "internalType": "uint32",
          "name": "newPriceDecayHalfLife",
          "type": "uint32"
        }
      ],
      "name": "TargetTokenPriceDecayHalfLifeUpdated",
      "type": "event"
    },
    {
      "anonymous": false,
      "inputs": [
        {
          "indexed": true,
          "internalType": "address",
          "name": "caller",
          "type": "address"
        },
        {
          "indexed": true,
          "internalType": "Token",
          "name": "token",
          "type": "address"
        },
        {
          "indexed": false,
          "internalType": "uint128",
          "name": "sourceAmount",
          "type": "uint128"
        },
        {
          "indexed": false,
          "internalType": "uint128",
          "name": "targetAmount",
          "type": "uint128"
        }
      ],
      "name": "TokenTraded",
      "type": "event"
    },
    {
      "anonymous": false,
      "inputs": [
        {
          "indexed": true,
          "internalType": "Token",
          "name": "token",
          "type": "address"
        },
        {
          "components": [
            {
              "internalType": "uint128",
              "name": "sourceAmount",
              "type": "uint128"
            },
            {
              "internalType": "uint128",
              "name": "targetAmount",
              "type": "uint128"
            }
          ],
          "indexed": false,
          "internalType": "struct ICarbonVortex.Price",
          "name": "price",
          "type": "tuple"
        }
      ],
      "name": "TradingReset",
      "type": "event"
    },
    {
      "inputs": [],
      "name": "DEFAULT_ADMIN_ROLE",
      "outputs": [
        {
          "internalType": "bytes32",
          "name": "",
          "type": "bytes32"
        }
      ],
      "stateMutability": "view",
      "type": "function"
    },
    {
      "inputs": [
        {
          "internalType": "Token",
          "name": "token",
          "type": "address"
        }
      ],
      "name": "amountAvailableForTrading",
      "outputs": [
        {
          "internalType": "uint128",
          "name": "",
          "type": "uint128"
        }
      ],
      "stateMutability": "view",
      "type": "function"
    },
    {
      "inputs": [
        {
          "internalType": "Token",
          "name": "token",
          "type": "address"
        }
      ],
      "name": "availableTokens",
      "outputs": [
        {
          "internalType": "uint256",
          "name": "",
          "type": "uint256"
        }
      ],
      "stateMutability": "view",
      "type": "function"
    },
    {
      "inputs": [
        {
          "internalType": "Token",
          "name": "token",
          "type": "address"
        },
        {
          "internalType": "bool",
          "name": "disabled",
          "type": "bool"
        }
      ],
      "name": "disablePair",
      "outputs": [],
      "stateMutability": "nonpayable",
      "type": "function"
    },
    {
      "inputs": [
        {
          "internalType": "Token[]",
          "name": "tokens",
          "type": "address[]"
        }
      ],
      "name": "execute",
      "outputs": [],
      "stateMutability": "nonpayable",
      "type": "function"
    },
    {
      "inputs": [
        {
          "internalType": "Token",
          "name": "token",
          "type": "address"
        },
        {
          "internalType": "uint128",
          "name": "targetAmount",
          "type": "uint128"
        }
      ],
      "name": "expectedTradeInput",
      "outputs": [
        {
          "internalType": "uint128",
          "name": "",
          "type": "uint128"
        }
      ],
      "stateMutability": "view",
      "type": "function"
    },
    {
      "inputs": [
        {
          "internalType": "Token",
          "name": "token",
          "type": "address"
        },
        {
          "internalType": "uint128",
          "name": "sourceAmount",
          "type": "uint128"
        }
      ],
      "name": "expectedTradeReturn",
      "outputs": [
        {
          "internalType": "uint128",
          "name": "",
          "type": "uint128"
        }
      ],
      "stateMutability": "view",
      "type": "function"
    },
    {
      "inputs": [],
      "name": "finalTargetToken",
      "outputs": [
        {
          "internalType": "Token",
          "name": "",
          "type": "address"
        }
      ],
      "stateMutability": "view",
      "type": "function"
    },
    {
      "inputs": [
        {
          "internalType": "bytes32",
          "name": "role",
          "type": "bytes32"
        }
      ],
      "name": "getRoleAdmin",
      "outputs": [
        {
          "internalType": "bytes32",
          "name": "",
          "type": "bytes32"
        }
      ],
      "stateMutability": "view",
      "type": "function"
    },
    {
      "inputs": [
        {
          "internalType": "bytes32",
          "name": "role",
          "type": "bytes32"
        },
        {
          "internalType": "uint256",
          "name": "index",
          "type": "uint256"
        }
      ],
      "name": "getRoleMember",
      "outputs": [
        {
          "internalType": "address",
          "name": "",
          "type": "address"
        }
      ],
      "stateMutability": "view",
      "type": "function"
    },
    {
      "inputs": [
        {
          "internalType": "bytes32",
          "name": "role",
          "type": "bytes32"
        }
      ],
      "name": "getRoleMemberCount",
      "outputs": [
        {
          "internalType": "uint256",
          "name": "",
          "type": "uint256"
        }
      ],
      "stateMutability": "view",
      "type": "function"
    },
    {
      "inputs": [
        {
          "internalType": "bytes32",
          "name": "role",
          "type": "bytes32"
        },
        {
          "internalType": "address",
          "name": "account",
          "type": "address"
        }
      ],
      "name": "grantRole",
      "outputs": [],
      "stateMutability": "nonpayable",
      "type": "function"
    },
    {
      "inputs": [
        {
          "internalType": "bytes32",
          "name": "role",
          "type": "bytes32"
        },
        {
          "internalType": "address",
          "name": "account",
          "type": "address"
        }
      ],
      "name": "hasRole",
      "outputs": [
        {
          "internalType": "bool",
          "name": "",
          "type": "bool"
        }
      ],
      "stateMutability": "view",
      "type": "function"
    },
    {
      "inputs": [],
      "name": "initialize",
      "outputs": [],
      "stateMutability": "nonpayable",
      "type": "function"
    },
    {
      "inputs": [],
      "name": "minTargetTokenSaleAmount",
      "outputs": [
        {
          "internalType": "uint128",
          "name": "",
          "type": "uint128"
        }
      ],
      "stateMutability": "view",
      "type": "function"
    },
    {
      "inputs": [
        {
          "internalType": "Token",
          "name": "token",
          "type": "address"
        }
      ],
      "name": "minTokenSaleAmount",
      "outputs": [
        {
          "internalType": "uint128",
          "name": "",
          "type": "uint128"
        }
      ],
      "stateMutability": "view",
      "type": "function"
    },
    {
      "inputs": [],
      "name": "minTokenSaleAmountMultiplier",
      "outputs": [
        {
          "internalType": "uint32",
          "name": "",
          "type": "uint32"
        }
      ],
      "stateMutability": "view",
      "type": "function"
    },
    {
      "inputs": [
        {
          "internalType": "Token",
          "name": "token",
          "type": "address"
        }
      ],
      "name": "pairDisabled",
      "outputs": [
        {
          "internalType": "bool",
          "name": "",
          "type": "bool"
        }
      ],
      "stateMutability": "view",
      "type": "function"
    },
    {
      "inputs": [
        {
          "internalType": "bytes",
          "name": "data",
          "type": "bytes"
        }
      ],
      "name": "postUpgrade",
      "outputs": [],
      "stateMutability": "nonpayable",
      "type": "function"
    },
    {
      "inputs": [],
      "name": "priceDecayHalfLife",
      "outputs": [
        {
          "internalType": "uint32",
          "name": "",
          "type": "uint32"
        }
      ],
      "stateMutability": "view",
      "type": "function"
    },
    {
      "inputs": [],
      "name": "priceResetMultiplier",
      "outputs": [
        {
          "internalType": "uint32",
          "name": "",
          "type": "uint32"
        }
      ],
      "stateMutability": "view",
      "type": "function"
    },
    {
      "inputs": [
        {
          "internalType": "bytes32",
          "name": "role",
          "type": "bytes32"
        },
        {
          "internalType": "address",
          "name": "account",
          "type": "address"
        }
      ],
      "name": "renounceRole",
      "outputs": [],
      "stateMutability": "nonpayable",
      "type": "function"
    },
    {
      "inputs": [
        {
          "internalType": "bytes32",
          "name": "role",
          "type": "bytes32"
        },
        {
          "internalType": "address",
          "name": "account",
          "type": "address"
        }
      ],
      "name": "revokeRole",
      "outputs": [],
      "stateMutability": "nonpayable",
      "type": "function"
    },
    {
      "inputs": [],
      "name": "rewardsPPM",
      "outputs": [
        {
          "internalType": "uint32",
          "name": "",
          "type": "uint32"
        }
      ],
      "stateMutability": "view",
      "type": "function"
    },
    {
      "inputs": [],
      "name": "roleAdmin",
      "outputs": [
        {
          "internalType": "bytes32",
          "name": "",
          "type": "bytes32"
        }
      ],
      "stateMutability": "pure",
      "type": "function"
    },
    {
      "inputs": [
        {
          "internalType": "uint128",
          "name": "newMaxTargetTokenSaleAmount",
          "type": "uint128"
        }
      ],
      "name": "setMaxTargetTokenSaleAmount",
      "outputs": [],
      "stateMutability": "nonpayable",
      "type": "function"
    },
    {
      "inputs": [
        {
          "internalType": "uint128",
          "name": "newMinTargetTokenSaleAmount",
          "type": "uint128"
        }
      ],
      "name": "setMinTargetTokenSaleAmount",
      "outputs": [],
      "stateMutability": "nonpayable",
      "type": "function"
    },
    {
      "inputs": [
        {
          "internalType": "uint32",
          "name": "newMinTokenSaleAmountMultiplier",
          "type": "uint32"
        }
      ],
      "name": "setMinTokenSaleAmountMultiplier",
      "outputs": [],
      "stateMutability": "nonpayable",
      "type": "function"
    },
    {
      "inputs": [
        {
          "internalType": "uint32",
          "name": "newPriceDecayHalfLife",
          "type": "uint32"
        }
      ],
      "name": "setPriceDecayHalfLife",
      "outputs": [],
      "stateMutability": "nonpayable",
      "type": "function"
    },
    {
      "inputs": [
        {
          "internalType": "uint32",
          "name": "newPriceResetMultiplier",
          "type": "uint32"
        }
      ],
      "name": "setPriceResetMultiplier",
      "outputs": [],
      "stateMutability": "nonpayable",
      "type": "function"
    },
    {
      "inputs": [
        {
          "internalType": "uint32",
          "name": "newRewardsPPM",
          "type": "uint32"
        }
      ],
      "name": "setRewardsPPM",
      "outputs": [],
      "stateMutability": "nonpayable",
      "type": "function"
    },
    {
      "inputs": [
        {
          "internalType": "uint32",
          "name": "newPriceDecayHalfLife",
          "type": "uint32"
        }
      ],
      "name": "setTargetTokenPriceDecayHalfLife",
      "outputs": [],
      "stateMutability": "nonpayable",
      "type": "function"
    },
    {
      "inputs": [
        {
          "internalType": "uint32",
          "name": "newPriceDecayHalfLife",
          "type": "uint32"
        }
      ],
      "name": "setTargetTokenPriceDecayHalfLifeOnReset",
      "outputs": [],
      "stateMutability": "nonpayable",
      "type": "function"
    },
    {
      "inputs": [
        {
          "internalType": "bytes4",
          "name": "interfaceId",
          "type": "bytes4"
        }
      ],
      "name": "supportsInterface",
      "outputs": [
        {
          "internalType": "bool",
          "name": "",
          "type": "bool"
        }
      ],
      "stateMutability": "view",
      "type": "function"
    },
    {
      "inputs": [],
      "name": "targetToken",
      "outputs": [
        {
          "internalType": "Token",
          "name": "",
          "type": "address"
        }
      ],
      "stateMutability": "view",
      "type": "function"
    },
    {
      "inputs": [],
      "name": "targetTokenPriceDecayHalfLife",
      "outputs": [
        {
          "internalType": "uint32",
          "name": "",
          "type": "uint32"
        }
      ],
      "stateMutability": "view",
      "type": "function"
    },
    {
      "inputs": [],
      "name": "targetTokenPriceDecayHalfLifeOnReset",
      "outputs": [
        {
          "internalType": "uint32",
          "name": "",
          "type": "uint32"
        }
      ],
      "stateMutability": "view",
      "type": "function"
    },
    {
      "inputs": [],
      "name": "targetTokenSaleAmount",
      "outputs": [
        {
          "components": [
            {
              "internalType": "uint128",
              "name": "initial",
              "type": "uint128"
            },
            {
              "internalType": "uint128",
              "name": "current",
              "type": "uint128"
            }
          ],
          "internalType": "struct ICarbonVortex.SaleAmount",
          "name": "",
          "type": "tuple"
        }
      ],
      "stateMutability": "view",
      "type": "function"
    },
    {
      "inputs": [
        {
          "internalType": "Token",
          "name": "token",
          "type": "address"
        }
      ],
      "name": "tokenPrice",
      "outputs": [
        {
          "components": [
            {
              "internalType": "uint128",
              "name": "sourceAmount",
              "type": "uint128"
            },
            {
              "internalType": "uint128",
              "name": "targetAmount",
              "type": "uint128"
            }
          ],
          "internalType": "struct ICarbonVortex.Price",
          "name": "",
          "type": "tuple"
        }
      ],
      "stateMutability": "view",
      "type": "function"
    },
    {
      "inputs": [],
      "name": "totalCollected",
      "outputs": [
        {
          "internalType": "uint256",
          "name": "",
          "type": "uint256"
        }
      ],
      "stateMutability": "view",
      "type": "function"
    },
    {
      "inputs": [
        {
          "internalType": "Token",
          "name": "token",
          "type": "address"
        },
        {
          "internalType": "uint128",
          "name": "targetAmount",
          "type": "uint128"
        }
      ],
      "name": "trade",
      "outputs": [],
      "stateMutability": "payable",
      "type": "function"
    },
    {
      "inputs": [
        {
          "internalType": "Token",
          "name": "token",
          "type": "address"
        }
      ],
      "name": "tradingEnabled",
      "outputs": [
        {
          "internalType": "bool",
          "name": "",
          "type": "bool"
        }
      ],
      "stateMutability": "view",
      "type": "function"
    },
    {
      "inputs": [],
      "name": "version",
      "outputs": [
        {
          "internalType": "uint16",
          "name": "",
          "type": "uint16"
        }
      ],
      "stateMutability": "pure",
      "type": "function"
    },
    {
      "inputs": [
        {
          "internalType": "Token[]",
          "name": "tokens",
          "type": "address[]"
        },
        {
          "internalType": "address payable",
          "name": "target",
          "type": "address"
        },
        {
          "internalType": "uint256[]",
          "name": "amounts",
          "type": "uint256[]"
        }
      ],
      "name": "withdrawFunds",
      "outputs": [],
      "stateMutability": "nonpayable",
      "type": "function"
    },
    {
      "stateMutability": "payable",
      "type": "receive"
    }
  ],
  "bytecode": "0x6101406040523480156200001257600080fd5b50604051620068ae380380620068ae833981016040819052620000359162000de8565b82620000418162000092565b826200004d8162000092565b6001600160a01b0380891660805287811660c05286811660a05285811660e0528481166101005283166101205262000084620000bd565b50505050505050506200107c565b6001600160a01b038116620000ba5760405163e6c4247b60e01b815260040160405180910390fd5b50565b600054610100900460ff1615808015620000de5750600054600160ff909116105b80620000fa5750303b158015620000fa575060005460ff166001145b620001635760405162461bcd60e51b815260206004820152602e60248201527f496e697469616c697a61626c653a20636f6e747261637420697320616c72656160448201526d191e481a5b9a5d1a585b1a5e995960921b60648201526084015b60405180910390fd5b6000805460ff19166001179055801562000187576000805461ff0019166101001790555b62000191620001da565b8015620000ba576000805461ff0019169055604051600181527f7f26b83ff96e1f2b6a682f133852f6798a09c465da95921460cefb38474024989060200160405180910390a150565b600054610100900460ff16620002365760405162461bcd60e51b815260206004820152602b60248201526000805160206200688e83398151915260448201526a6e697469616c697a696e6760a81b60648201526084016200015a565b6200024062000256565b6200024a620002c6565b620002546200032c565b565b600054610100900460ff16620002b25760405162461bcd60e51b815260206004820152602b60248201526000805160206200688e83398151915260448201526a6e697469616c697a696e6760a81b60648201526084016200015a565b620002bc62000453565b62000254620004af565b600054610100900460ff16620003225760405162461bcd60e51b815260206004820152602b60248201526000805160206200688e83398151915260448201526a6e697469616c697a696e6760a81b60648201526084016200015a565b6200025462000564565b600054610100900460ff16620003885760405162461bcd60e51b815260206004820152602b60248201526000805160206200688e83398151915260448201526a6e697469616c697a696e6760a81b60648201526084016200015a565b62000395611388620005c7565b620003a160026200063c565b620003ad6004620006bf565b620003ba61a8c06200074a565b620003c761a8c0620007cb565b620003d5620d2f006200085e565b62000416620003f6610100516001600160a01b0316620008df60201b60201c565b6200040390600a62000fd0565b6200041090606462000fea565b62000965565b610100516200025490620004336001600160a01b038216620008df565b6200044090600a62000fd0565b6200044d90600a62000fea565b62000a4e565b600054610100900460ff16620002545760405162461bcd60e51b815260206004820152602b60248201526000805160206200688e83398151915260448201526a6e697469616c697a696e6760a81b60648201526084016200015a565b600054610100900460ff166200050b5760405162461bcd60e51b815260206004820152602b60248201526000805160206200688e83398151915260448201526a6e697469616c697a696e6760a81b60648201526084016200015a565b6200051860018062001018565b60c9805461ffff191661ffff92909216919091179055620005496000805160206200686e8339815191528062000afa565b620002546000805160206200686e8339815191523362000b45565b600054610100900460ff16620005c05760405162461bcd60e51b815260206004820152602b60248201526000805160206200688e83398151915260448201526a6e697469616c697a696e6760a81b60648201526084016200015a565b600160fb55565b61012e5463ffffffff9081169082168103620005e1575050565b61012e805463ffffffff191663ffffffff84811691821790925560408051928416835260208301919091527fae6032c8c5e2de64a0ea5bae16212679a17117929d901adc5ad7852d503d8a1291015b60405180910390a15050565b61012e5463ffffffff640100000000909104811690821681036200065e575050565b61012e805463ffffffff60201b191664010000000063ffffffff8581169182029290921790925560408051918416825260208201929092527f33f05f943b1d9d33ead056b32deb8d9918421c996ac02108cb2753a7c1cc42cb910162000630565b61012e5463ffffffff6801000000000000000090910481169082168103620006e5575050565b61012e805463ffffffff60401b19166801000000000000000063ffffffff8581169182029290921790925560408051918416825260208201929092527f5f8c28c7dd7c58bccf13b50fb8815ac0278a1edd75b439e06ebfb0bb0a65dce1910162000630565b61012e5463ffffffff600160a01b909104811690821681036200076b575050565b61012e805463ffffffff60a01b1916600160a01b63ffffffff8581169182029290921790925560408051918416825260208201929092527f91a3ff80be5536f6b4a03994984844ded4c1470ac2e7c1a1f9445464358788c3910162000630565b61012e5463ffffffff6c0100000000000000000000000090910481169082168103620007f5575050565b61012e805463ffffffff60601b19166c0100000000000000000000000063ffffffff8581169182029290921790925560408051918416825260208201929092527f294a5aed6c155d82e90637e2643e9b498d502610ff21b79c0bd25fc843211328910162000630565b61012e5463ffffffff600160801b909104811690821681036200087f575050565b61012e805463ffffffff60801b1916600160801b63ffffffff8581169182029290921790925560408051918416825260208201929092527f0975e374c098c5a9a021fe12dff984574b06a6da66d816004d0a6e12e387c02b910162000630565b6000620008ec8262000b55565b15620008fa57506012919050565b816001600160a01b031663313ce5676040518163ffffffff1660e01b8152600401602060405180830381865afa15801562000939573d6000803e3d6000fd5b505050506040513d601f19601f820116820180604052508101906200095f91906200103d565b92915050565b610133546001600160801b03908116908216810362000982575050565b61013380546001600160801b0319166001600160801b0384811691821792839055600160801b909204909116111562000a0d5761010051620009ee90620009e890620009d8906001600160a01b03163062000b7d565b6001600160801b03851662000c19565b62000c31565b61013380546001600160801b03928316600160801b0292169190911790555b604080516001600160801b038084168252841660208201527fdbd15ecc744064a04fd47221c1e039aaebacbc20c59b7b833fe499efb1999cd3910162000630565b6001600160a01b038216600090815261013260205260409020546001600160801b03908116908216810362000a8257505050565b6001600160a01b0383166000818152610132602090815260409182902080546001600160801b0319166001600160801b0387811691821790925583519186168252918101919091527f5a387f90e98064d45229fc077854834539bef69df2b1447346ce29f8761a158f910160405180910390a2505050565b600082815260656020526040808220600101805490849055905190918391839186917fbd79b86ffe0ab8e8776151514217cd7cacd52c909f66475c3af44e129f0b00ff9190a4505050565b62000b51828262000ca0565b5050565b60006001600160a01b03821673eeeeeeeeeeeeeeeeeeeeeeeeeeeeeeeeeeeeeeee146200095f565b600062000b8a8362000b55565b1562000ba257506001600160a01b038116316200095f565b826040516370a0823160e01b81526001600160a01b03848116600483015291909116906370a0823190602401602060405180830381865afa15801562000bec573d6000803e3d6000fd5b505050506040513d601f19601f8201168201806040525081019062000c12919062001062565b9392505050565b600081831062000c2a578162000c12565b5090919050565b60006001600160801b0382111562000c9c5760405162461bcd60e51b815260206004820152602760248201527f53616665436173743a2076616c756520646f65736e27742066697420696e20316044820152663238206269747360c81b60648201526084016200015a565b5090565b62000cac828262000ccb565b600082815260976020526040902062000cc6908262000d6f565b505050565b60008281526065602090815260408083206001600160a01b038516845290915290205460ff1662000b515760008281526065602090815260408083206001600160a01b03851684529091529020805460ff1916600117905562000d2b3390565b6001600160a01b0316816001600160a01b0316837f2f8788117e7eff1d82e926ec794901d17c78024a50270940304540a733656f0d60405160405180910390a45050565b600062000c12836001600160a01b038416600081815260018301602052604081205462000dc9575081546001818101845560008481526020808220909301849055845484825282860190935260409020919091556200095f565b5060006200095f565b6001600160a01b0381168114620000ba57600080fd5b60008060008060008060c0878903121562000e0257600080fd5b865162000e0f8162000dd2565b602088015190965062000e228162000dd2565b604088015190955062000e358162000dd2565b606088015190945062000e488162000dd2565b608088015190935062000e5b8162000dd2565b60a088015190925062000e6e8162000dd2565b809150509295509295509295565b634e487b7160e01b600052601160045260246000fd5b600181815b8085111562000ed9576001600160801b0382900482111562000ebd5762000ebd62000e7c565b8085161562000ecb57918102915b93841c939080029062000e97565b509250929050565b60008262000ef2575060016200095f565b8162000f01575060006200095f565b816001811462000f1a576002811462000f255762000f60565b60019150506200095f565b60ff84111562000f395762000f3962000e7c565b6001841b91506001600160801b0382111562000f595762000f5962000e7c565b506200095f565b5060208310610133831016604e8410600b841016171562000f9f575081810a6001600160801b0381111562000f995762000f9962000e7c565b6200095f565b62000fab838362000e92565b6001600160801b0381900482111562000fc85762000fc862000e7c565b029392505050565b600062000c1260ff84166001600160801b03841662000ee1565b6001600160801b0381811683821602808216919082811462001010576200101062000e7c565b505092915050565b61ffff82811682821603908082111562001036576200103662000e7c565b5092915050565b6000602082840312156200105057600080fd5b815160ff8116811462000c1257600080fd5b6000602082840312156200107557600080fd5b5051919050565b60805160a05160c05160e051610100516101205161564b62001223600039600081816104e901528181611106015281816111df015281816121d10152818161229c015281816123340152818161274c015261283f0152600081816103f00152818161092b01528181610b60015281816111a8015281816112180152818161172701528181611da00152818161215d015281816122fa015281816124090152818161246e015281816124cb0152818161252c015281816125ac0152818161266e015281816126fc0152818161278501528181612876015281816128e10152818161292901528181612d4401528181612df301528181612eb501528181612f2a01528181612f950152818161348701528181613fa801528181613ff5015261401901526000818161123a0152818161225b015281816122bf01526127a7015260008181610d3001528181610e8d01528181610ef901528181611962015261199e015260008181610d5601528181610f7e01528181610fea015281816119d10152611a0d015260008181610d0a01528181610dfc0152818161188301526118e8015261564b6000f3fe6080604052600436106102eb5760003560e01c806393867fb511610184578063c7f53874116100d6578063e29eb8361161008a578063ecd844ae11610064578063ecd844ae14610971578063eec245e214610999578063ef7cbc4a146109b957600080fd5b8063e29eb836146108c6578063e60963f8146108dc578063ea2e12e51461091c57600080fd5b8063cb8ea538116100bb578063cb8ea53814610866578063d1591fa614610886578063d547741f146108a657600080fd5b8063c7f538741461082a578063ca15c8731461084657600080fd5b8063a1a660a711610138578063ac5b12ec11610112578063ac5b12ec146107be578063bedf9525146107ea578063c735ce431461080a57600080fd5b8063a1a660a714610769578063a217fddf14610789578063a7ae00d21461079e57600080fd5b806394cb09471161016957806394cb0947146106ef5780639c18c7631461070f5780639dee50ea1461074957600080fd5b806393867fb51461069c57806394717ae9146106cf57600080fd5b806354fd4d501161023d57806382431688116101f15780638cd2403d116101cb5780638cd2403d146106165780639010d07c1461063657806391d148541461065657600080fd5b8063824316881461056557806384ba3f691461059d5780638619c0d9146105ca57600080fd5b806363ee9e4e1161022257806363ee9e4e1461050d5780636b36b05b146105305780638129fc1c1461055057600080fd5b806354fd4d50146104be578063613ef7ed146104da57600080fd5b8063327107f71161029f5780634b4e97ee116102795780634b4e97ee1461045b5780634bb69ddb1461047e5780634c0a0dfa1461049e57600080fd5b8063327107f7146103e157806336568abe146104285780634747919d1461044857600080fd5b80630d108f2c116102d05780630d108f2c14610361578063248a9ca3146103835780632f2ff15d146103c157600080fd5b806301ffc9a7146102f7578063035dff191461032c57600080fd5b366102f257005b600080fd5b34801561030357600080fd5b50610317610312366004614d4d565b6109d9565b60405190151581526020015b60405180910390f35b34801561033857600080fd5b5061012e54640100000000900463ffffffff165b60405163ffffffff9091168152602001610323565b34801561036d57600080fd5b5061038161037c366004614d8f565b610a35565b005b34801561038f57600080fd5b506103b361039e366004614db5565b60009081526065602052604090206001015490565b604051908152602001610323565b3480156103cd57600080fd5b506103816103dc366004614de3565b610a7c565b3480156103ed57600080fd5b507f00000000000000000000000000000000000000000000000000000000000000005b6040516001600160a01b039091168152602001610323565b34801561043457600080fd5b50610381610443366004614de3565b610aa6565b610381610456366004614e2a565b610b33565b34801561046757600080fd5b5061012e54600160801b900463ffffffff1661034c565b34801561048a57600080fd5b50610381610499366004614d8f565b610c0f565b3480156104aa57600080fd5b506103816104b9366004614ea4565b610c52565b3480156104ca57600080fd5b5060405160018152602001610323565b3480156104e657600080fd5b507f0000000000000000000000000000000000000000000000000000000000000000610410565b34801561051957600080fd5b5061012e54600160a01b900463ffffffff1661034c565b34801561053c57600080fd5b5061038161054b366004614d8f565b61144c565b34801561055c57600080fd5b50610381611489565b34801561057157600080fd5b50610585610580366004614e2a565b6115a9565b6040516001600160801b039091168152602001610323565b3480156105a957600080fd5b506105bd6105b8366004614ee6565b611664565b6040516103239190614f03565b3480156105d657600080fd5b5060408051808201825260008082526020918201528151808301909252610133546001600160801b038082168452600160801b90910416908201526105bd565b34801561062257600080fd5b50610381610631366004614f27565b6117ae565b34801561064257600080fd5b50610410610651366004614f99565b611819565b34801561066257600080fd5b50610317610671366004614de3565b60009182526065602090815260408084206001600160a01b0393909316845291905290205460ff1690565b3480156106a857600080fd5b507f2172861495e7b85edac73e3cd5fbb42dd675baadf627720e687bcfdaca0250966103b3565b3480156106db57600080fd5b506103816106ea366004614fbb565b611838565b3480156106fb57600080fd5b506103b361070a366004614ee6565b61187e565b34801561071b57600080fd5b5061031761072a366004614ee6565b6001600160a01b0316600090815261012f602052604090205460ff1690565b34801561075557600080fd5b50610381610764366004614d8f565b611a5b565b34801561077557600080fd5b50610381610784366004614fd6565b611a9e565b34801561079557600080fd5b506103b3600081565b3480156107aa57600080fd5b506105856107b9366004614e2a565b611c02565b3480156107ca57600080fd5b5061012e546c01000000000000000000000000900463ffffffff1661034c565b3480156107f657600080fd5b50610317610805366004614ee6565b611ca9565b34801561081657600080fd5b50610381610825366004615069565b611cd0565b34801561083657600080fd5b5061012e5463ffffffff1661034c565b34801561085257600080fd5b506103b3610861366004614db5565b611d04565b34801561087257600080fd5b50610381610881366004614d8f565b611d1b565b34801561089257600080fd5b506103816108a1366004614fbb565b611d5e565b3480156108b257600080fd5b506103816108c1366004614de3565b611dc5565b3480156108d257600080fd5b5061012d546103b3565b3480156108e857600080fd5b506105856108f7366004614ee6565b6001600160a01b0316600090815261013260205260409020546001600160801b031690565b34801561092857600080fd5b507f00000000000000000000000000000000000000000000000000000000000000006001600160a01b0316600090815261013260205260409020546001600160801b0316610585565b34801561097d57600080fd5b5061012e5468010000000000000000900463ffffffff1661034c565b3480156109a557600080fd5b506105856109b4366004614ee6565b611dea565b3480156109c557600080fd5b506103816109d4366004614d8f565b611df5565b60007fffffffff0000000000000000000000000000000000000000000000000000000082167f5a05180f000000000000000000000000000000000000000000000000000000001480610a2f5750610a2f82611e38565b92915050565b610a5f7f2172861495e7b85edac73e3cd5fbb42dd675baadf627720e687bcfdaca02509633611ecf565b8063ffffffff16610a6f81611f2b565b610a7882611f65565b5050565b600082815260656020526040902060010154610a9781612004565b610aa1838361200e565b505050565b6001600160a01b0381163314610b295760405162461bcd60e51b815260206004820152602f60248201527f416363657373436f6e74726f6c3a2063616e206f6e6c792072656e6f756e636560448201527f20726f6c657320666f722073656c66000000000000000000000000000000000060648201526084015b60405180910390fd5b610a788282612030565b610b3b612052565b81610b45816120ab565b816001600160801b0316610b5881611f2b565b6000610b90857f00000000000000000000000000000000000000000000000000000000000000006001600160a01b0390811691161490565b15610ba557610b9e84612155565b9050610bb2565b610baf8585612612565b90505b604080516001600160801b038084168252861660208201526001600160a01b0387169133917f16ddee9b3f1b2e6f797172fe2cd10a214e749294074e075e451f95aecd0b958c910160405180910390a3505050610a78600160fb55565b610c397f2172861495e7b85edac73e3cd5fbb42dd675baadf627720e687bcfdaca02509633611ecf565b8063ffffffff16610c4981611f2b565b610a7882612995565b610c5a612052565b8181610c668282612a2e565b8260008167ffffffffffffffff811115610c8257610c82615097565b604051908082528060200260200182016040528015610cab578160200160208202803683370190505b50905060008267ffffffffffffffff811115610cc957610cc9615097565b604051908082528060200260200182016040528015610cf2578160200160208202803683370190505b5061012e5490915063ffffffff166001600160a01b037f000000000000000000000000000000000000000000000000000000000000000081161515907f000000000000000000000000000000000000000000000000000000000000000081161515907f000000000000000000000000000000000000000000000000000000000000000016151560005b878110156110ab5760008c8c83818110610d9757610d976150ad565b9050602002016020810190610dac9190614ee6565b905060008515610e76576040517f9ba372c20000000000000000000000000000000000000000000000000000000081526001600160a01b03838116600483015260001960248301523060448301527f00000000000000000000000000000000000000000000000000000000000000001690639ba372c2906064016020604051808303816000875af1158015610e45573d6000803e3d6000fd5b505050506040513d601f19601f82011682018060405250810190610e6991906150c3565b610e7390826150f2565b90505b8415610f67576000610eb16001600160a01b0384167f0000000000000000000000000000000000000000000000000000000000000000612b78565b6040517f1c20fadd0000000000000000000000000000000000000000000000000000000081526001600160a01b038581166004830152306024830152604482018390529192507f000000000000000000000000000000000000000000000000000000000000000090911690631c20fadd90606401600060405180830381600087803b158015610f3f57600080fd5b505af1158015610f53573d6000803e3d6000fd5b505050508082610f6391906150f2565b9150505b8315611058576000610fa26001600160a01b0384167f0000000000000000000000000000000000000000000000000000000000000000612b78565b6040517f1c20fadd0000000000000000000000000000000000000000000000000000000081526001600160a01b038581166004830152306024830152604482018390529192507f000000000000000000000000000000000000000000000000000000000000000090911690631c20fadd90606401600060405180830381600087803b15801561103057600080fd5b505af1158015611044573d6000803e3d6000fd5b50505050808261105491906150f2565b9150505b8089848151811061106b5761106b6150ad565b60209081029190910101526110848188620f4240612c1f565b888481518110611096576110966150ad565b60209081029190910101525050600101610d7b565b5060005b878110156113f95760008c8c838181106110cb576110cb6150ad565b90506020020160208101906110e09190614ee6565b905060008883815181106110f6576110f66150ad565b60200260200101519050611136827f00000000000000000000000000000000000000000000000000000000000000006001600160a01b0390811691161490565b156111425750506113f1565b80158061116857506001600160a01b038216600090815261012f602052604090205460ff165b156111745750506113f1565b6000888481518110611188576111886150ad565b60200260200101519050600081836111a09190615105565b90506111d8847f00000000000000000000000000000000000000000000000000000000000000006001600160a01b0390811691161490565b156112fd577f00000000000000000000000000000000000000000000000000000000000000006001600160a01b031661127d5761125f6001600160a01b037f0000000000000000000000000000000000000000000000000000000000000000167f000000000000000000000000000000000000000000000000000000000000000083612cfa565b8061012d600082825461127291906150f2565b909155506113ec9050565b6001600160a01b0384166000908152610130602052604090205463ffffffff1615806112db57506001600160a01b038416600090815261013260205260409020546001600160801b03166112d085612d3c565b6001600160801b0316105b806112ea57506112ea84612dad565b156112f8576112f882612e77565b6113ec565b600061130885612d3c565b9050611332856001600160a01b03166000908152610130602052604090205463ffffffff16151590565b158061136e57506001600160a01b038516600090815261013260205260409020546001600160801b039081169061136c9084908416615105565b105b806113cc57506001600160a01b0385166000908152610132602052604090205461012e546113b7916001600160801b03169068010000000000000000900463ffffffff16615118565b6001600160801b0316816001600160801b0316115b806113db57506113db85612dad565b156113ea576113ea8584612ff8565b505b505050505b6001016110af565b50611439338c8c808060200260200160405190810160405280939291908181526020018383602002808284376000920191909152508a92506130f3915050565b505050505050505050610a78600160fb55565b6114767f2172861495e7b85edac73e3cd5fbb42dd675baadf627720e687bcfdaca02509633611ecf565b806114808161316b565b610a78826131ae565b600054610100900460ff16158080156114a95750600054600160ff909116105b806114c35750303b1580156114c3575060005460ff166001145b6115355760405162461bcd60e51b815260206004820152602e60248201527f496e697469616c697a61626c653a20636f6e747261637420697320616c72656160448201527f647920696e697469616c697a65640000000000000000000000000000000000006064820152608401610b20565b6000805460ff191660011790558015611558576000805461ff0019166101001790555b61156061321a565b80156115a6576000805461ff0019169055604051600181527f7f26b83ff96e1f2b6a682f133852f6798a09c465da95921460cefb38474024989060200160405180910390a15b50565b6000826115b5816120ab565b60006115c085611664565b90506115cb8161329f565b60006116036115fe83602001516001600160801b0316876001600160801b031685600001516001600160801b0316612c1f565b6132f7565b905061160e86612d3c565b6001600160801b0316816001600160801b03161115611659576040517f8e26ecdf00000000000000000000000000000000000000000000000000000000815260040160405180910390fd5b9250505b5092915050565b60408051808201909152600080825260208201526001600160a01b0382166000908152610130602052604081205463ffffffff16908190036116d2576040517fbcb8b8fb00000000000000000000000000000000000000000000000000000000815260040160405180910390fd5b60006116de8242615143565b6001600160a01b038581166000818152610131602090815260408083208151808301909252546001600160801b038082168352600160801b9091041691810191909152939450917f000000000000000000000000000000000000000000000000000000000000000016146117625761012e54600160a01b900463ffffffff1661177d565b61012e546c01000000000000000000000000900463ffffffff165b905061179a6115fe83600001516001600160801b0316858461337a565b6001600160801b0316825250949350505050565b60c9546000906117c39061ffff166001615160565b905061ffff8116600114611803576040517f0dc149f000000000000000000000000000000000000000000000000000000000815260040160405180910390fd5b60c9805461ffff191661ffff8316179055505050565b60008281526097602052604081206118319083613402565b9392505050565b6118627f2172861495e7b85edac73e3cd5fbb42dd675baadf627720e687bcfdaca02509633611ecf565b806001600160801b031661187581611f2b565b610a788261340e565b6000807f00000000000000000000000000000000000000000000000000000000000000006001600160a01b031615611960576040517ffcf666640000000000000000000000000000000000000000000000000000000081526001600160a01b0384811660048301527f0000000000000000000000000000000000000000000000000000000000000000169063fcf6666490602401602060405180830381865afa15801561192f573d6000803e3d6000fd5b505050506040513d601f19601f8201168201806040525081019061195391906150c3565b61195d90826150f2565b90505b7f00000000000000000000000000000000000000000000000000000000000000006001600160a01b0316156119cf576119c26001600160a01b0384167f0000000000000000000000000000000000000000000000000000000000000000612b78565b6119cc90826150f2565b90505b7f00000000000000000000000000000000000000000000000000000000000000006001600160a01b031615611a3e57611a316001600160a01b0384167f0000000000000000000000000000000000000000000000000000000000000000612b78565b611a3b90826150f2565b90505b611a516001600160a01b03841630612b78565b61183190826150f2565b611a857f2172861495e7b85edac73e3cd5fbb42dd675baadf627720e687bcfdaca02509633611ecf565b8063ffffffff16611a9581611f2b565b610a788261351b565b82611aa8816135b2565b8585611ab48282612a2e565b611abc612052565b611ae67f2172861495e7b85edac73e3cd5fbb42dd675baadf627720e687bcfdaca02509633611ecf565b86848114611b20576040517f0b83f83800000000000000000000000000000000000000000000000000000000815260040160405180910390fd5b60005b81811015611b8757611b7f88888884818110611b4157611b416150ad565b905060200201358c8c85818110611b5a57611b5a6150ad565b9050602002016020810190611b6f9190614ee6565b6001600160a01b03169190612cfa565b600101611b23565b50866001600160a01b0316336001600160a01b03168a8a604051611bac92919061517b565b60405180910390207f928c965b5a7ac3964d452392d2920cfe16f13634362554650837410a99cc3b558989604051611be59291906151bd565b60405180910390a450611bf8600160fb55565b5050505050505050565b600082611c0e816120ab565b611c1784612d3c565b6001600160801b0316836001600160801b03161115611c62576040517f8e26ecdf00000000000000000000000000000000000000000000000000000000815260040160405180910390fd5b6000611c6d85611664565b9050611c788161329f565b6116596115fe82600001516001600160801b0316866001600160801b031684602001516001600160801b03166135f2565b6001600160a01b0381166000908152610130602052604081205463ffffffff161515610a2f565b611cfa7f2172861495e7b85edac73e3cd5fbb42dd675baadf627720e687bcfdaca02509633611ecf565b610a788282613649565b6000818152609760205260408120610a2f906136d5565b611d457f2172861495e7b85edac73e3cd5fbb42dd675baadf627720e687bcfdaca02509633611ecf565b8063ffffffff16611d5581611f2b565b610a78826136df565b611d887f2172861495e7b85edac73e3cd5fbb42dd675baadf627720e687bcfdaca02509633611ecf565b806001600160801b0316611d9b81611f2b565b610a787f000000000000000000000000000000000000000000000000000000000000000083613780565b600082815260656020526040902060010154611de081612004565b610aa18383612030565b6000610a2f82612d3c565b611e1f7f2172861495e7b85edac73e3cd5fbb42dd675baadf627720e687bcfdaca02509633611ecf565b8063ffffffff16611e2f81611f2b565b610a788261383b565b60007fffffffff0000000000000000000000000000000000000000000000000000000082167f7965db0b000000000000000000000000000000000000000000000000000000001480610a2f57507f01ffc9a7000000000000000000000000000000000000000000000000000000007fffffffff00000000000000000000000000000000000000000000000000000000831614610a2f565b60008281526065602090815260408083206001600160a01b038516845290915290205460ff16610a78576040517f4ca8886700000000000000000000000000000000000000000000000000000000815260040160405180910390fd5b806000036115a6576040517f7c946ed700000000000000000000000000000000000000000000000000000000815260040160405180910390fd5b61012e5463ffffffff600160a01b90910481169082168103611f85575050565b61012e80547fffffffffffffffff00000000ffffffffffffffffffffffffffffffffffffffff16600160a01b63ffffffff8581169182029290921790925560408051918416825260208201929092527f91a3ff80be5536f6b4a03994984844ded4c1470ac2e7c1a1f9445464358788c391015b60405180910390a15050565b6115a681336138e4565b6120188282613959565b6000828152609760205260409020610aa190826139fb565b61203a8282613a10565b6000828152609760205260409020610aa19082613a93565b600260fb54036120a45760405162461bcd60e51b815260206004820152601f60248201527f5265656e7472616e637947756172643a207265656e7472616e742063616c6c006044820152606401610b20565b600260fb55565b6001600160a01b0381166000908152610130602052604090205463ffffffff16612101576040517fbcb8b8fb00000000000000000000000000000000000000000000000000000000815260040160405180910390fd5b6001600160a01b038116600090815261012f602052604090205460ff16156115a6576040517f74c5330a00000000000000000000000000000000000000000000000000000000815260040160405180910390fd5b6000806121827f000000000000000000000000000000000000000000000000000000000000000084611c02565b9050806001600160801b03166000036121c7576040517fd69b537900000000000000000000000000000000000000000000000000000000815260040160405180910390fd5b6001600160a01b037f00000000000000000000000000000000000000000000000000000000000000001673eeeeeeeeeeeeeeeeeeeeeeeeeeeeeeeeeeeeeeee0361228f57806001600160801b031634101561224e576040517f9086bdc100000000000000000000000000000000000000000000000000000000815260040160405180910390fd5b61228a6001600160a01b037f0000000000000000000000000000000000000000000000000000000000000000166001600160801b038316613aa8565b6122ed565b6122ed6001600160a01b037f000000000000000000000000000000000000000000000000000000000000000016337f00000000000000000000000000000000000000000000000000000000000000006001600160801b038516613bc1565b61232a6001600160a01b037f000000000000000000000000000000000000000000000000000000000000000016336001600160801b038616612cfa565b6001600160a01b037f00000000000000000000000000000000000000000000000000000000000000001673eeeeeeeeeeeeeeeeeeeeeeeeeeeeeeeeeeeeeeee14801561237e5750806001600160801b031634115b156123a0576123a06123996001600160801b03831634615105565b3390613aa8565b806001600160801b031661012d60008282546123bc91906150f2565b909155505061013380548491906010906123e7908490600160801b90046001600160801b031661520f565b82546101009290920a6001600160801b038181021990931691831602179091557f00000000000000000000000000000000000000000000000000000000000000006001600160a01b03166000908152610132602052604090205461013354908216600160801b90910490911610159050610a2f576124a66115fe6124946001600160a01b037f00000000000000000000000000000000000000000000000000000000000000001630612b78565b610133546001600160801b0316613beb565b61013380546001600160801b03928316600160801b02921691909117905560006124ef7f0000000000000000000000000000000000000000000000000000000000000000611664565b61012e548151919250640100000000900463ffffffff16908290612514908390615118565b6001600160801b039081169091526001600160a01b037f0000000000000000000000000000000000000000000000000000000000000000166000908152610131602090815260408083208651838801518616600160801b908102919096161790556101309091529020805463ffffffff42811663ffffffff199092169190911790915561012e546125aa9350919091041661383b565b7f00000000000000000000000000000000000000000000000000000000000000006001600160a01b03167faa86acbf67bc5e97ce95471a279336f9fa5bd2ac8f64e81ac442a0972b0c633b826040516126039190614f03565b60405180910390a25092915050565b60008061261f8484611c02565b9050806001600160801b0316600003612664576040517fd69b537900000000000000000000000000000000000000000000000000000000815260040160405180910390fd5b6001600160a01b037f00000000000000000000000000000000000000000000000000000000000000001673eeeeeeeeeeeeeeeeeeeeeeeeeeeeeeeeeeeeeeee1480156126b85750806001600160801b031634105b156126ef576040517f9086bdc100000000000000000000000000000000000000000000000000000000815260040160405180910390fd5b61272d6001600160a01b037f00000000000000000000000000000000000000000000000000000000000000001633306001600160801b038516613bc1565b61274a6001600160a01b038516336001600160801b038616613c01565b7f00000000000000000000000000000000000000000000000000000000000000006001600160a01b03166127f7576127d56001600160a01b037f0000000000000000000000000000000000000000000000000000000000000000167f00000000000000000000000000000000000000000000000000000000000000006001600160801b038416612cfa565b806001600160801b031661012d60008282546127f191906150f2565b90915550505b6001600160a01b038416600090815261013260205260409020546001600160801b031661282385612d3c565b6001600160801b0316101561283d5761283d846000612ff8565b7f00000000000000000000000000000000000000000000000000000000000000006001600160a01b031615801590612910575061012e547f00000000000000000000000000000000000000000000000000000000000000006001600160a01b0316600090815261013260205260409020546128d39168010000000000000000900463ffffffff16906001600160801b0316615245565b6001600160801b03166129057f0000000000000000000000000000000000000000000000000000000000000000612d3c565b6001600160801b0316105b1561291f5761291f6000612e77565b6001600160a01b037f00000000000000000000000000000000000000000000000000000000000000001673eeeeeeeeeeeeeeeeeeeeeeeeeeeeeeeeeeeeeeee1480156129735750806001600160801b031634115b15611831576118316123996001600160801b03831634615105565b600160fb55565b61012e5463ffffffff640100000000909104811690821681036129b6575050565b61012e80547fffffffffffffffffffffffffffffffffffffffffffffffff00000000ffffffff1664010000000063ffffffff8581169182029290921790925560408051918416825260208201929092527f33f05f943b1d9d33ead056b32deb8d9918421c996ac02108cb2753a7c1cc42cb9101611ff8565b806000819003612a6a576040517f7dee3bcb00000000000000000000000000000000000000000000000000000000815260040160405180910390fd5b60005b81811015612b72576000848483818110612a8957612a896150ad565b9050602002016020810190612a9e9190614ee6565b90506001600160a01b038116612ae0576040517fc1ab6dc100000000000000000000000000000000000000000000000000000000815260040160405180910390fd5b600182015b83811015612b6857612b2982878784818110612b0357612b036150ad565b9050602002016020810190612b189190614ee6565b6001600160a01b0390811691161490565b15612b60576040517f464e3f6a00000000000000000000000000000000000000000000000000000000815260040160405180910390fd5b600101612ae5565b5050600101612a6d565b50505050565b6000612b8383613c52565b15612b9957506001600160a01b03811631610a2f565b826040517f70a082310000000000000000000000000000000000000000000000000000000081526001600160a01b03848116600483015291909116906370a0823190602401602060405180830381865afa158015612bfb573d6000803e3d6000fd5b505050506040513d601f19601f8201168201806040525081019061183191906150c3565b6000806000612c2e8686613c79565b9150915081600003612c5357838181612c4957612c4961522f565b0492505050611831565b838210612c7357604051631a93c68960e11b815260040160405180910390fd5b6000612c80878787613cb4565b9050600080612c90858585613ccf565b9150915081600003612cb857868181612cab57612cab61522f565b0495505050505050611831565b6000878103881690612ccb848484613cff565b90506000612ce7838b81612ce157612ce161522f565b04613d3c565b919091029b9a5050505050505050505050565b80600003612d0757505050565b612d1083613c52565b15612d2857610aa16001600160a01b03831682613aa8565b610aa16001600160a01b0384168383613d5d565b6000612d74827f00000000000000000000000000000000000000000000000000000000000000006001600160a01b0390811691161490565b15612d9257505061013354600160801b90046001600160801b031690565b610a2f6115fe6001600160a01b03841630612b78565b919050565b6001600160a01b0381166000908152610130602052604081205463ffffffff16808203612ddd5750600092915050565b6000612de98242615143565b90506000612e23857f00000000000000000000000000000000000000000000000000000000000000006001600160a01b0390811691161490565b612e3d5761012e54600160a01b900463ffffffff16612e58565b61012e546c01000000000000000000000000900463ffffffff165b90506080612e66828461526b565b63ffffffff16101595945050505050565b60408051808201825260008082526020918201819052825180840184526001600160801b0380825264e8d4a510008285019081526001600160a01b037f00000000000000000000000000000000000000000000000000000000000000001684526101308552858420805463ffffffff421663ffffffff19909116179055610131909452938220815193518516600160801b0293909416929092179092559050612f5a6115fe83612f506001600160a01b037f00000000000000000000000000000000000000000000000000000000000000001630612b78565b6124949190615105565b61013380546001600160801b03928316600160801b02921691909117905561012e54612f939063ffffffff600160a01b9091041661383b565b7f00000000000000000000000000000000000000000000000000000000000000006001600160a01b03167f5ca7720c6803d2fa51e59501f044b092942f5ca58436a564f81c63c7e5b9546682604051612fec9190614f03565b60405180910390a25050565b60408051808201825260008082526020918201819052825180840184526001600160801b0380825264e8d4a510008285019081526001600160a01b03881684526101308552858420805463ffffffff421663ffffffff19909116179055610131909452938220815193518516600160801b02939094169290921790925590506130ad83600261309e856130946001600160a01b03851630612b78565b6115fe9190615105565b6130a89190615245565b613780565b826001600160a01b03167f5ca7720c6803d2fa51e59501f044b092942f5ca58436a564f81c63c7e5b95466826040516130e69190614f03565b60405180910390a2505050565b815160005b81811015613164576000848281518110613114576131146150ad565b602002602001015190506000848381518110613132576131326150ad565b6020026020010151905061315a8782846001600160a01b0316612cfa9092919063ffffffff16565b50506001016130f8565b5050505050565b620f424063ffffffff821611156115a6576040517f58d620b300000000000000000000000000000000000000000000000000000000815260040160405180910390fd5b61012e5463ffffffff90811690821681036131c7575050565b61012e805463ffffffff191663ffffffff84811691821790925560408051928416835260208301919091527fae6032c8c5e2de64a0ea5bae16212679a17117929d901adc5ad7852d503d8a129101611ff8565b600054610100900460ff166132855760405162461bcd60e51b815260206004820152602b60248201527f496e697469616c697a61626c653a20636f6e7472616374206973206e6f74206960448201526a6e697469616c697a696e6760a81b6064820152608401610b20565b61328d613e06565b613295613e81565b61329d613ef4565b565b80516001600160801b031615806132c1575060208101516001600160801b0316155b156115a6576040517ebfc92100000000000000000000000000000000000000000000000000000000815260040160405180910390fd5b60006001600160801b038211156133765760405162461bcd60e51b815260206004820152602760248201527f53616665436173743a2076616c756520646f65736e27742066697420696e203160448201527f32382062697473000000000000000000000000000000000000000000000000006064820152608401610b20565b5090565b600080613387838561526b565b63ffffffff169050600061339b8486615282565b63ffffffff169050600060405180604001604052808381526020018663ffffffff16815250905060006133cd8261405c565b90506133f68882602001518660026133e59190615487565b84516133f19190615493565b612c1f565b98975050505050505050565b6000611831838361443a565b610133546001600160801b03908116908216810361342a575050565b61013380547fffffffffffffffffffffffffffffffff00000000000000000000000000000000166001600160801b0384811691821792839055600160801b90920490911611156134db576134bc6115fe6134ad6001600160a01b037f00000000000000000000000000000000000000000000000000000000000000001630612b78565b846001600160801b0316613beb565b61013380546001600160801b03928316600160801b0292169190911790555b604080516001600160801b038084168252841660208201527fdbd15ecc744064a04fd47221c1e039aaebacbc20c59b7b833fe499efb1999cd39101611ff8565b61012e5463ffffffff600160801b9091048116908216810361353b575050565b61012e80547fffffffffffffffffffffffff00000000ffffffffffffffffffffffffffffffff16600160801b63ffffffff8581169182029290921790925560408051918416825260208201929092527f0975e374c098c5a9a021fe12dff984574b06a6da66d816004d0a6e12e387c02b9101611ff8565b6001600160a01b0381166115a6576040517fe6c4247b00000000000000000000000000000000000000000000000000000000815260040160405180910390fd5b600080613600858585612c1f565b9050600061360f868686613cb4565b111561364157600019811061363757604051631a93c68960e11b815260040160405180910390fd5b6001019050611831565b949350505050565b6001600160a01b038216600090815261012f602052604090205460ff168115158115150361367657505050565b6001600160a01b038316600081815261012f6020908152604091829020805460ff191686151590811790915582518515158152918201527ffee4ac8750f51e1aaece4e95e80a8a961f8865ad4cc9938493b7d3d280cf18ff91016130e6565b6000610a2f825490565b61012e5463ffffffff6801000000000000000090910481169082168103613704575050565b61012e80547fffffffffffffffffffffffffffffffffffffffff00000000ffffffffffffffff166801000000000000000063ffffffff8581169182029290921790925560408051918416825260208201929092527f5f8c28c7dd7c58bccf13b50fb8815ac0278a1edd75b439e06ebfb0bb0a65dce19101611ff8565b6001600160a01b038216600090815261013260205260409020546001600160801b0390811690821681036137b357505050565b6001600160a01b0383166000818152610132602090815260409182902080547fffffffffffffffffffffffffffffffff00000000000000000000000000000000166001600160801b0387811691821790925583519186168252918101919091527f5a387f90e98064d45229fc077854834539bef69df2b1447346ce29f8761a158f91016130e6565b61012e5463ffffffff6c0100000000000000000000000090910481169082168103613864575050565b61012e80547fffffffffffffffffffffffffffffffff00000000ffffffffffffffffffffffff166c0100000000000000000000000063ffffffff8581169182029290921790925560408051918416825260208201929092527f294a5aed6c155d82e90637e2643e9b498d502610ff21b79c0bd25fc8432113289101611ff8565b60008281526065602090815260408083206001600160a01b038516845290915290205460ff16610a785761391781614464565b613922836020614476565b6040516020016139339291906154ce565b60408051601f198184030181529082905262461bcd60e51b8252610b209160040161554f565b60008281526065602090815260408083206001600160a01b038516845290915290205460ff16610a785760008281526065602090815260408083206001600160a01b03851684529091529020805460ff191660011790556139b73390565b6001600160a01b0316816001600160a01b0316837f2f8788117e7eff1d82e926ec794901d17c78024a50270940304540a733656f0d60405160405180910390a45050565b6000611831836001600160a01b03841661469f565b60008281526065602090815260408083206001600160a01b038516845290915290205460ff1615610a785760008281526065602090815260408083206001600160a01b0385168085529252808320805460ff1916905551339285917ff6391f5c32d9c69d2a47ea670b442974b53935d1edc7fd64eb21e047a839171b9190a45050565b6000611831836001600160a01b0384166146ee565b80471015613af85760405162461bcd60e51b815260206004820152601d60248201527f416464726573733a20696e73756666696369656e742062616c616e63650000006044820152606401610b20565b6000826001600160a01b03168260405160006040518083038185875af1925050503d8060008114613b45576040519150601f19603f3d011682016040523d82523d6000602084013e613b4a565b606091505b5050905080610aa15760405162461bcd60e51b815260206004820152603a60248201527f416464726573733a20756e61626c6520746f2073656e642076616c75652c207260448201527f6563697069656e74206d617920686176652072657665727465640000000000006064820152608401610b20565b801580613bd25750613bd284613c52565b612b7257612b726001600160a01b0385168484846147e1565b6000818310613bfa5781611831565b5090919050565b80600003613c0e57505050565b613c1783613c52565b15612d28576040516001600160a01b0383169082156108fc029083906000818181858888f19350505050158015612b72573d6000803e3d6000fd5b60006001600160a01b03821673eeeeeeeeeeeeeeeeeeeeeeeeeeeeeeeeeeeeeeee14610a2f565b6000806000613c888585614832565b9050848402808210613ca1579081900392509050613cad565b60018183030393509150505b9250929050565b60008180613cc457613cc461522f565b838509949350505050565b600080828410613ce55750839050818303613cf7565b613cf0600186615105565b9150508183035b935093915050565b600080613d1d8380830381613d1657613d1661522f565b0460010190565b9050828481613d2e57613d2e61522f565b048186021795945050505050565b60006001815b600881101561165d5783820260020382029150600101613d42565b6040516001600160a01b038316602482015260448101829052610aa19084907fa9059cbb00000000000000000000000000000000000000000000000000000000906064015b60408051601f198184030181529190526020810180517bffffffffffffffffffffffffffffffffffffffffffffffffffffffff167fffffffff0000000000000000000000000000000000000000000000000000000090931692909217909152614841565b600054610100900460ff16613e715760405162461bcd60e51b815260206004820152602b60248201527f496e697469616c697a61626c653a20636f6e7472616374206973206e6f74206960448201526a6e697469616c697a696e6760a81b6064820152608401610b20565b613e79614929565b61329d614994565b600054610100900460ff16613eec5760405162461bcd60e51b815260206004820152602b60248201527f496e697469616c697a61626c653a20636f6e7472616374206973206e6f74206960448201526a6e697469616c697a696e6760a81b6064820152608401610b20565b61329d614a74565b600054610100900460ff16613f5f5760405162461bcd60e51b815260206004820152602b60248201527f496e697469616c697a61626c653a20636f6e7472616374206973206e6f74206960448201526a6e697469616c697a696e6760a81b6064820152608401610b20565b613f6a6113886131ae565b613f746002612995565b613f7e60046136df565b613f8961a8c0611f65565b613f9461a8c061383b565b613fa0620d2f0061351b565b613ff0613fd57f00000000000000000000000000000000000000000000000000000000000000006001600160a01b0316614adf565b613fe090600a615582565b613feb906064615118565b61340e565b61329d7f00000000000000000000000000000000000000000000000000000000000000006140467f00000000000000000000000000000000000000000000000000000000000000006001600160a01b0316614adf565b61405190600a615582565b6130a890600a615118565b604080518082019091526000808252602082015260006140956f58b90bfbe8e7bcd5e4f1d9cc01f97b5784600001518560200151612c1f565b90506000808070080000000000000000000000000000000084106140cc57604051631a93c68960e11b815260040160405180910390fd5b6f10000000000000000000000000000000840692508291506001607f1b8280020491506710e1b3be415a00008202016001607f1b8383020491506705a0913f6b1e00008202016001607f1b838302049150670168244fdac780008202016001607f1b838302049150664807432bc180008202016001607f1b838302049150660c0135dca040008202016001607f1b8383020491506601b707b1cdc0008202016001607f1b8383020491506536e0f639b8008202016001607f1b838302049150650618fee9f8008202016001607f1b838302049150649c197dcc008202016001607f1b838302049150640e30dce4008202016001607f1b83830204915064012ebd13008202016001607f1b8383020491506317499f008202016001607f1b8383020491506301a9d4808202016001607f1b838302049150621c63808202016001607f1b8383020491506201c6388202016001607f1b838302049150611ab88202016001607f1b83830204915061017c8202016001607f1b83830204915060148202016001607f1b83830204915081016001607f1b836721c3677c82b400008304010190506f100000000000000000000000000000008416156142b15770018ebef9eac820ae8682b9793ac6d1e7767001c3d6a24ed82218787d624d3e5eba95f982020490505b6f200000000000000000000000000000008416156142f3577001368b2fc6f9609fe7aceb46aa619baed470018ebef9eac820ae8682b9793ac6d1e77882020490505b6f40000000000000000000000000000000841615614334576fbc5ab1b16779be3575bd8f0520a9f21f7001368b2fc6f9609fe7aceb46aa619baed582020490505b6001607f1b841615614368576f454aaa8efe072e7f6ddbab84b40a55c96fbc5ab1b16779be3575bd8f0520a9f21e82020490505b600160801b84161561439c576f0960aadc109e7a3bf4578099615711ea6f454aaa8efe072e7f6ddbab84b40a55c582020490505b7002000000000000000000000000000000008416156143dc576e2bf84208204f5977f9a8cf01fdce3d6f0960aadc109e7a3bf4578099615711d782020490505b70040000000000000000000000000000000084161561441a576d03c6ab775dd0b95b4cbee7e65d116e2bf84208204f5977f9a8cf01fdc30782020490505b604080518082019091529081526001607f1b602082015295945050505050565b6000826000018281548110614451576144516150ad565b9060005260206000200154905092915050565b6060610a2f6001600160a01b03831660145b60606000614485836002615493565b6144909060026150f2565b67ffffffffffffffff8111156144a8576144a8615097565b6040519080825280601f01601f1916602001820160405280156144d2576020820181803683370190505b5090507f300000000000000000000000000000000000000000000000000000000000000081600081518110614509576145096150ad565b60200101907effffffffffffffffffffffffffffffffffffffffffffffffffffffffffffff1916908160001a9053507f78000000000000000000000000000000000000000000000000000000000000008160018151811061456c5761456c6150ad565b60200101907effffffffffffffffffffffffffffffffffffffffffffffffffffffffffffff1916908160001a90535060006145a8846002615493565b6145b39060016150f2565b90505b6001811115614650577f303132333435363738396162636465660000000000000000000000000000000085600f16601081106145f4576145f46150ad565b1a60f81b82828151811061460a5761460a6150ad565b60200101907effffffffffffffffffffffffffffffffffffffffffffffffffffffffffffff1916908160001a90535060049490941c936146498161559a565b90506145b6565b5083156118315760405162461bcd60e51b815260206004820181905260248201527f537472696e67733a20686578206c656e67746820696e73756666696369656e746044820152606401610b20565b60008181526001830160205260408120546146e657508154600181810184556000848152602080822090930184905584548482528286019093526040902091909155610a2f565b506000610a2f565b600081815260018301602052604081205480156147d7576000614712600183615105565b855490915060009061472690600190615105565b905081811461478b576000866000018281548110614746576147466150ad565b9060005260206000200154905080876000018481548110614769576147696150ad565b6000918252602080832090910192909255918252600188019052604090208390555b855486908061479c5761479c6155b1565b600190038181906000526020600020016000905590558560010160008681526020019081526020016000206000905560019350505050610a2f565b6000915050610a2f565b6040516001600160a01b0380851660248301528316604482015260648101829052612b729085907f23b872dd0000000000000000000000000000000000000000000000000000000090608401613da2565b60006000198284099392505050565b6000614896826040518060400160405280602081526020017f5361666545524332303a206c6f772d6c6576656c2063616c6c206661696c6564815250856001600160a01b0316614b599092919063ffffffff16565b90508051600014806148b75750808060200190518101906148b791906155c7565b610aa15760405162461bcd60e51b815260206004820152602a60248201527f5361666545524332303a204552433230206f7065726174696f6e20646964206e60448201527f6f742073756363656564000000000000000000000000000000000000000000006064820152608401610b20565b600054610100900460ff1661329d5760405162461bcd60e51b815260206004820152602b60248201527f496e697469616c697a61626c653a20636f6e7472616374206973206e6f74206960448201526a6e697469616c697a696e6760a81b6064820152608401610b20565b600054610100900460ff166149ff5760405162461bcd60e51b815260206004820152602b60248201527f496e697469616c697a61626c653a20636f6e7472616374206973206e6f74206960448201526a6e697469616c697a696e6760a81b6064820152608401610b20565b614a0a6001806155e4565b60c9805461ffff191661ffff92909216919091179055614a4a7f2172861495e7b85edac73e3cd5fbb42dd675baadf627720e687bcfdaca02509680614b68565b61329d7f2172861495e7b85edac73e3cd5fbb42dd675baadf627720e687bcfdaca02509633614bb3565b600054610100900460ff1661298e5760405162461bcd60e51b815260206004820152602b60248201527f496e697469616c697a61626c653a20636f6e7472616374206973206e6f74206960448201526a6e697469616c697a696e6760a81b6064820152608401610b20565b6000614aea82613c52565b15614af757506012919050565b816001600160a01b031663313ce5676040518163ffffffff1660e01b8152600401602060405180830381865afa158015614b35573d6000803e3d6000fd5b505050506040513d601f19601f82011682018060405250810190610a2f91906155ff565b60606136418484600085614bbd565b600082815260656020526040808220600101805490849055905190918391839186917fbd79b86ffe0ab8e8776151514217cd7cacd52c909f66475c3af44e129f0b00ff9190a4505050565b610a78828261200e565b606082471015614c355760405162461bcd60e51b815260206004820152602660248201527f416464726573733a20696e73756666696369656e742062616c616e636520666f60448201527f722063616c6c00000000000000000000000000000000000000000000000000006064820152608401610b20565b600080866001600160a01b03168587604051614c519190615622565b60006040518083038185875af1925050503d8060008114614c8e576040519150601f19603f3d011682016040523d82523d6000602084013e614c93565b606091505b5091509150614ca487838387614caf565b979650505050505050565b60608315614d1e578251600003614d17576001600160a01b0385163b614d175760405162461bcd60e51b815260206004820152601d60248201527f416464726573733a2063616c6c20746f206e6f6e2d636f6e74726163740000006044820152606401610b20565b5081613641565b6136418383815115614d335781518083602001fd5b8060405162461bcd60e51b8152600401610b20919061554f565b600060208284031215614d5f57600080fd5b81357fffffffff000000000000000000000000000000000000000000000000000000008116811461183157600080fd5b600060208284031215614da157600080fd5b813563ffffffff8116811461183157600080fd5b600060208284031215614dc757600080fd5b5035919050565b6001600160a01b03811681146115a657600080fd5b60008060408385031215614df657600080fd5b823591506020830135614e0881614dce565b809150509250929050565b80356001600160801b0381168114612da857600080fd5b60008060408385031215614e3d57600080fd5b8235614e4881614dce565b9150614e5660208401614e13565b90509250929050565b60008083601f840112614e7157600080fd5b50813567ffffffffffffffff811115614e8957600080fd5b6020830191508360208260051b8501011115613cad57600080fd5b60008060208385031215614eb757600080fd5b823567ffffffffffffffff811115614ece57600080fd5b614eda85828601614e5f565b90969095509350505050565b600060208284031215614ef857600080fd5b813561183181614dce565b60408101610a2f828480516001600160801b03908116835260209182015116910152565b60008060208385031215614f3a57600080fd5b823567ffffffffffffffff80821115614f5257600080fd5b818501915085601f830112614f6657600080fd5b813581811115614f7557600080fd5b866020828501011115614f8757600080fd5b60209290920196919550909350505050565b60008060408385031215614fac57600080fd5b50508035926020909101359150565b600060208284031215614fcd57600080fd5b61183182614e13565b600080600080600060608688031215614fee57600080fd5b853567ffffffffffffffff8082111561500657600080fd5b61501289838a01614e5f565b90975095506020880135915061502782614dce565b9093506040870135908082111561503d57600080fd5b5061504a88828901614e5f565b969995985093965092949392505050565b80151581146115a657600080fd5b6000806040838503121561507c57600080fd5b823561508781614dce565b91506020830135614e088161505b565b634e487b7160e01b600052604160045260246000fd5b634e487b7160e01b600052603260045260246000fd5b6000602082840312156150d557600080fd5b5051919050565b634e487b7160e01b600052601160045260246000fd5b80820180821115610a2f57610a2f6150dc565b81810381811115610a2f57610a2f6150dc565b6001600160801b0381811683821602808216919082811461513b5761513b6150dc565b505092915050565b63ffffffff82811682821603908082111561165d5761165d6150dc565b61ffff81811683821601908082111561165d5761165d6150dc565b60008184825b858110156151b257813561519481614dce565b6001600160a01b031683526020928301929190910190600101615181565b509095945050505050565b6020815281602082015260007f07ffffffffffffffffffffffffffffffffffffffffffffffffffffffffffffff8311156151f657600080fd5b8260051b80856040850137919091016040019392505050565b6001600160801b0382811682821603908082111561165d5761165d6150dc565b634e487b7160e01b600052601260045260246000fd5b60006001600160801b038084168061525f5761525f61522f565b92169190910492915050565b600063ffffffff8084168061525f5761525f61522f565b600063ffffffff808416806152995761529961522f565b92169190910692915050565b600181815b808511156152e05781600019048211156152c6576152c66150dc565b808516156152d357918102915b93841c93908002906152aa565b509250929050565b600181815b808511156152e057816001600160801b030482111561530e5761530e6150dc565b8085161561531b57918102915b93841c93908002906152ed565b60008261533757506001610a2f565b8161534457506000610a2f565b816001811461535a576002811461536457615380565b6001915050610a2f565b60ff841115615375576153756150dc565b50506001821b610a2f565b5060208310610133831016604e8410600b84101617156153a3575081810a610a2f565b6153ad83836152a5565b80600019048211156153c1576153c16150dc565b029392505050565b6000826153d857506001610a2f565b816153e557506000610a2f565b816001811461535a576002810361542a5760ff841115615407576154076150dc565b6001841b91506001600160801b03821115615424576154246150dc565b50610a2f565b5060208310610133831016604e8410600b8410161715615464575081810a6001600160801b0381111561545f5761545f6150dc565b610a2f565b61546e83836152e8565b806001600160801b03048211156153c1576153c16150dc565b60006118318383615328565b8082028115828204841417610a2f57610a2f6150dc565b60005b838110156154c55781810151838201526020016154ad565b50506000910152565b7f416363657373436f6e74726f6c3a206163636f756e74200000000000000000008152600083516155068160178501602088016154aa565b7f206973206d697373696e6720726f6c652000000000000000000000000000000060179184019182015283516155438160288401602088016154aa565b01602801949350505050565b602081526000825180602084015261556e8160408501602087016154aa565b601f01601f19169190910160400192915050565b600061183160ff84166001600160801b0384166153c9565b6000816155a9576155a96150dc565b506000190190565b634e487b7160e01b600052603160045260246000fd5b6000602082840312156155d957600080fd5b81516118318161505b565b61ffff82811682821603908082111561165d5761165d6150dc565b60006020828403121561561157600080fd5b815160ff8116811461183157600080fd5b600082516156348184602087016154aa565b919091019291505056fea164736f6c6343000813000a2172861495e7b85edac73e3cd5fbb42dd675baadf627720e687bcfdaca025096496e697469616c697a61626c653a20636f6e7472616374206973206e6f742069",
  "linkReferences": {},
  "deployedLinkReferences": {}
}